{
	"contracts/Sample/Struct.sol": {
		"Todos": {
			"abi": [
				{
					"inputs": [
						{
							"internalType": "string",
							"name": "_text",
							"type": "string"
						}
					],
					"name": "create",
					"outputs": [],
					"stateMutability": "nonpayable",
					"type": "function"
				},
				{
					"inputs": [
						{
							"internalType": "uint256",
							"name": "_index",
							"type": "uint256"
						}
					],
					"name": "get",
					"outputs": [
						{
							"internalType": "string",
							"name": "",
							"type": "string"
						},
						{
							"internalType": "bool",
							"name": "",
							"type": "bool"
						}
					],
					"stateMutability": "view",
					"type": "function"
				},
				{
					"inputs": [
						{
							"internalType": "uint256",
							"name": "",
							"type": "uint256"
						}
					],
					"name": "todos",
					"outputs": [
						{
							"internalType": "string",
							"name": "text",
							"type": "string"
						},
						{
							"internalType": "bool",
							"name": "completed",
							"type": "bool"
						}
					],
					"stateMutability": "view",
					"type": "function"
				},
				{
					"inputs": [
						{
							"internalType": "uint256",
							"name": "_index",
							"type": "uint256"
						}
					],
					"name": "toggleCompleted",
					"outputs": [],
					"stateMutability": "nonpayable",
					"type": "function"
				},
				{
					"inputs": [
						{
							"internalType": "uint256",
							"name": "_index",
							"type": "uint256"
						},
						{
							"internalType": "string",
							"name": "_text",
							"type": "string"
						}
					],
					"name": "updateText",
					"outputs": [],
					"stateMutability": "nonpayable",
					"type": "function"
				}
			],
			"devdoc": {
				"kind": "dev",
				"methods": {},
				"version": 1
			},
			"evm": {
				"assembly": "    /* \"contracts/Sample/Struct.sol\":61:1552  contract Todos {... */\n  mstore(0x40, 0x80)\n  callvalue\n  dup1\n  iszero\n  tag_1\n  jumpi\n  0x00\n  dup1\n  revert\ntag_1:\n  pop\n  dataSize(sub_0)\n  dup1\n  dataOffset(sub_0)\n  0x00\n  codecopy\n  0x00\n  return\nstop\n\nsub_0: assembly {\n        /* \"contracts/Sample/Struct.sol\":61:1552  contract Todos {... */\n      mstore(0x40, 0x80)\n      callvalue\n      dup1\n      iszero\n      tag_1\n      jumpi\n      0x00\n      dup1\n      revert\n    tag_1:\n      pop\n      jumpi(tag_2, lt(calldatasize, 0x04))\n      shr(0xe0, calldataload(0x00))\n      dup1\n      0x455f5024\n      eq\n      tag_3\n      jumpi\n      dup1\n      0x9507d39a\n      eq\n      tag_4\n      jumpi\n      dup1\n      0xb6a46b3b\n      eq\n      tag_5\n      jumpi\n      dup1\n      0xbc8bc2b4\n      eq\n      tag_6\n      jumpi\n      dup1\n      0xcd111614\n      eq\n      tag_7\n      jumpi\n    tag_2:\n      0x00\n      dup1\n      revert\n        /* \"contracts/Sample/Struct.sol\":1383:1549  function toggleCompleted(uint256 _index) public IndexOutOfBound(_index){... */\n    tag_3:\n      tag_8\n      0x04\n      dup1\n      calldatasize\n      sub\n      dup2\n      add\n      swap1\n      tag_9\n      swap2\n      swap1\n      tag_10\n      jump\t// in\n    tag_9:\n      tag_11\n      jump\t// in\n    tag_8:\n      stop\n        /* \"contracts/Sample/Struct.sol\":918:1152  function get(uint256 _index)... */\n    tag_4:\n      tag_12\n      0x04\n      dup1\n      calldatasize\n      sub\n      dup2\n      add\n      swap1\n      tag_13\n      swap2\n      swap1\n      tag_10\n      jump\t// in\n    tag_13:\n      tag_14\n      jump\t// in\n    tag_12:\n      mload(0x40)\n      tag_15\n      swap3\n      swap2\n      swap1\n      tag_16\n      jump\t// in\n    tag_15:\n      mload(0x40)\n      dup1\n      swap2\n      sub\n      swap1\n      return\n        /* \"contracts/Sample/Struct.sol\":221:683  function create(string calldata _text) public {... */\n    tag_5:\n      tag_17\n      0x04\n      dup1\n      calldatasize\n      sub\n      dup2\n      add\n      swap1\n      tag_18\n      swap2\n      swap1\n      tag_19\n      jump\t// in\n    tag_18:\n      tag_20\n      jump\t// in\n    tag_17:\n      stop\n        /* \"contracts/Sample/Struct.sol\":193:212  Todo[] public todos */\n    tag_6:\n      tag_21\n      0x04\n      dup1\n      calldatasize\n      sub\n      dup2\n      add\n      swap1\n      tag_22\n      swap2\n      swap1\n      tag_10\n      jump\t// in\n    tag_22:\n      tag_23\n      jump\t// in\n    tag_21:\n      mload(0x40)\n      tag_24\n      swap3\n      swap2\n      swap1\n      tag_16\n      jump\t// in\n    tag_24:\n      mload(0x40)\n      dup1\n      swap2\n      sub\n      swap1\n      return\n        /* \"contracts/Sample/Struct.sol\":1180:1350  function updateText(uint256 _index, string calldata _text) public IndexOutOfBound(_index) {... */\n    tag_7:\n      tag_25\n      0x04\n      dup1\n      calldatasize\n      sub\n      dup2\n      add\n      swap1\n      tag_26\n      swap2\n      swap1\n      tag_27\n      jump\t// in\n    tag_26:\n      tag_28\n      jump\t// in\n    tag_25:\n      stop\n        /* \"contracts/Sample/Struct.sol\":1383:1549  function toggleCompleted(uint256 _index) public IndexOutOfBound(_index){... */\n    tag_11:\n        /* \"contracts/Sample/Struct.sol\":1447:1453  _index */\n      dup1\n        /* \"contracts/Sample/Struct.sol\":760:765  todos */\n      0x00\n        /* \"contracts/Sample/Struct.sol\":760:772  todos.length */\n      dup1\n      sload\n      swap1\n      pop\n        /* \"contracts/Sample/Struct.sol\":751:757  _index */\n      dup2\n        /* \"contracts/Sample/Struct.sol\":751:772  _index < todos.length */\n      lt\n        /* \"contracts/Sample/Struct.sol\":743:780  require(_index < todos.length, \"???\") */\n      tag_30\n      jumpi\n      mload(0x40)\n      0x08c379a000000000000000000000000000000000000000000000000000000000\n      dup2\n      mstore\n      0x04\n      add\n      tag_31\n      swap1\n      tag_32\n      jump\t// in\n    tag_31:\n      mload(0x40)\n      dup1\n      swap2\n      sub\n      swap1\n      revert\n    tag_30:\n        /* \"contracts/Sample/Struct.sol\":1465:1482  Todo storage todo */\n      0x00\n        /* \"contracts/Sample/Struct.sol\":1485:1490  todos */\n      dup1\n        /* \"contracts/Sample/Struct.sol\":1491:1497  _index */\n      dup4\n        /* \"contracts/Sample/Struct.sol\":1485:1498  todos[_index] */\n      dup2\n      sload\n      dup2\n      lt\n      tag_34\n      jumpi\n      tag_35\n      tag_36\n      jump\t// in\n    tag_35:\n    tag_34:\n      swap1\n      0x00\n      mstore\n      keccak256(0x00, 0x20)\n      swap1\n      0x02\n      mul\n      add\n        /* \"contracts/Sample/Struct.sol\":1465:1498  Todo storage todo = todos[_index] */\n      swap1\n      pop\n        /* \"contracts/Sample/Struct.sol\":1527:1531  todo */\n      dup1\n        /* \"contracts/Sample/Struct.sol\":1527:1541  todo.completed */\n      0x01\n      add\n      0x00\n      swap1\n      sload\n      swap1\n      0x0100\n      exp\n      swap1\n      div\n      0xff\n      and\n        /* \"contracts/Sample/Struct.sol\":1526:1541  !todo.completed */\n      iszero\n        /* \"contracts/Sample/Struct.sol\":1509:1513  todo */\n      dup2\n        /* \"contracts/Sample/Struct.sol\":1509:1523  todo.completed */\n      0x01\n      add\n      0x00\n        /* \"contracts/Sample/Struct.sol\":1509:1541  todo.completed = !todo.completed */\n      0x0100\n      exp\n      dup2\n      sload\n      dup2\n      0xff\n      mul\n      not\n      and\n      swap1\n      dup4\n      iszero\n      iszero\n      mul\n      or\n      swap1\n      sstore\n      pop\n        /* \"contracts/Sample/Struct.sol\":1454:1549  {... */\n      pop\n        /* \"contracts/Sample/Struct.sol\":1383:1549  function toggleCompleted(uint256 _index) public IndexOutOfBound(_index){... */\n      pop\n      pop\n      jump\t// out\n        /* \"contracts/Sample/Struct.sol\":918:1152  function get(uint256 _index)... */\n    tag_14:\n        /* \"contracts/Sample/Struct.sol\":1028:1041  string memory */\n      0x60\n        /* \"contracts/Sample/Struct.sol\":1044:1048  bool */\n      0x00\n        /* \"contracts/Sample/Struct.sol\":1002:1008  _index */\n      dup3\n        /* \"contracts/Sample/Struct.sol\":760:765  todos */\n      0x00\n        /* \"contracts/Sample/Struct.sol\":760:772  todos.length */\n      dup1\n      sload\n      swap1\n      pop\n        /* \"contracts/Sample/Struct.sol\":751:757  _index */\n      dup2\n        /* \"contracts/Sample/Struct.sol\":751:772  _index < todos.length */\n      lt\n        /* \"contracts/Sample/Struct.sol\":743:780  require(_index < todos.length, \"???\") */\n      tag_39\n      jumpi\n      mload(0x40)\n      0x08c379a000000000000000000000000000000000000000000000000000000000\n      dup2\n      mstore\n      0x04\n      add\n      tag_40\n      swap1\n      tag_32\n      jump\t// in\n    tag_40:\n      mload(0x40)\n      dup1\n      swap2\n      sub\n      swap1\n      revert\n    tag_39:\n        /* \"contracts/Sample/Struct.sol\":1066:1083  Todo storage todo */\n      0x00\n        /* \"contracts/Sample/Struct.sol\":1086:1091  todos */\n      dup1\n        /* \"contracts/Sample/Struct.sol\":1092:1098  _index */\n      dup6\n        /* \"contracts/Sample/Struct.sol\":1086:1099  todos[_index] */\n      dup2\n      sload\n      dup2\n      lt\n      tag_42\n      jumpi\n      tag_43\n      tag_36\n      jump\t// in\n    tag_43:\n    tag_42:\n      swap1\n      0x00\n      mstore\n      keccak256(0x00, 0x20)\n      swap1\n      0x02\n      mul\n      add\n        /* \"contracts/Sample/Struct.sol\":1066:1099  Todo storage todo = todos[_index] */\n      swap1\n      pop\n        /* \"contracts/Sample/Struct.sol\":1118:1122  todo */\n      dup1\n        /* \"contracts/Sample/Struct.sol\":1118:1127  todo.text */\n      0x00\n      add\n        /* \"contracts/Sample/Struct.sol\":1129:1133  todo */\n      dup2\n        /* \"contracts/Sample/Struct.sol\":1129:1143  todo.completed */\n      0x01\n      add\n      0x00\n      swap1\n      sload\n      swap1\n      0x0100\n      exp\n      swap1\n      div\n      0xff\n      and\n        /* \"contracts/Sample/Struct.sol\":1110:1144  return (todo.text, todo.completed) */\n      dup2\n      dup1\n      sload\n      tag_45\n      swap1\n      tag_46\n      jump\t// in\n    tag_45:\n      dup1\n      0x1f\n      add\n      0x20\n      dup1\n      swap2\n      div\n      mul\n      0x20\n      add\n      mload(0x40)\n      swap1\n      dup2\n      add\n      0x40\n      mstore\n      dup1\n      swap3\n      swap2\n      swap1\n      dup2\n      dup2\n      mstore\n      0x20\n      add\n      dup3\n      dup1\n      sload\n      tag_47\n      swap1\n      tag_46\n      jump\t// in\n    tag_47:\n      dup1\n      iszero\n      tag_48\n      jumpi\n      dup1\n      0x1f\n      lt\n      tag_49\n      jumpi\n      0x0100\n      dup1\n      dup4\n      sload\n      div\n      mul\n      dup4\n      mstore\n      swap2\n      0x20\n      add\n      swap2\n      jump(tag_48)\n    tag_49:\n      dup3\n      add\n      swap2\n      swap1\n      0x00\n      mstore\n      keccak256(0x00, 0x20)\n      swap1\n    tag_50:\n      dup2\n      sload\n      dup2\n      mstore\n      swap1\n      0x01\n      add\n      swap1\n      0x20\n      add\n      dup1\n      dup4\n      gt\n      tag_50\n      jumpi\n      dup3\n      swap1\n      sub\n      0x1f\n      and\n      dup3\n      add\n      swap2\n    tag_48:\n      pop\n      pop\n      pop\n      pop\n      pop\n      swap2\n      pop\n      swap4\n      pop\n      swap4\n      pop\n      pop\n        /* \"contracts/Sample/Struct.sol\":918:1152  function get(uint256 _index)... */\n      pop\n      swap2\n      pop\n      swap2\n      jump\t// out\n        /* \"contracts/Sample/Struct.sol\":221:683  function create(string calldata _text) public {... */\n    tag_20:\n        /* \"contracts/Sample/Struct.sol\":361:366  todos */\n      0x00\n        /* \"contracts/Sample/Struct.sol\":372:390  Todo(_text, false) */\n      mload(0x40)\n      dup1\n      0x40\n      add\n      0x40\n      mstore\n      dup1\n        /* \"contracts/Sample/Struct.sol\":377:382  _text */\n      dup5\n      dup5\n        /* \"contracts/Sample/Struct.sol\":372:390  Todo(_text, false) */\n      dup1\n      dup1\n      0x1f\n      add\n      0x20\n      dup1\n      swap2\n      div\n      mul\n      0x20\n      add\n      mload(0x40)\n      swap1\n      dup2\n      add\n      0x40\n      mstore\n      dup1\n      swap4\n      swap3\n      swap2\n      swap1\n      dup2\n      dup2\n      mstore\n      0x20\n      add\n      dup4\n      dup4\n      dup1\n      dup3\n      dup5\n      calldatacopy\n      0x00\n      dup2\n      dup5\n      add\n      mstore\n      not(0x1f)\n      0x1f\n      dup3\n      add\n      and\n      swap1\n      pop\n      dup1\n      dup4\n      add\n      swap3\n      pop\n      pop\n      pop\n      pop\n      pop\n      pop\n      pop\n      dup2\n      mstore\n      0x20\n      add\n        /* \"contracts/Sample/Struct.sol\":384:389  false */\n      0x00\n        /* \"contracts/Sample/Struct.sol\":372:390  Todo(_text, false) */\n      iszero\n      iszero\n      dup2\n      mstore\n      pop\n        /* \"contracts/Sample/Struct.sol\":361:391  todos.push(Todo(_text, false)) */\n      swap1\n      dup1\n      0x01\n      dup2\n      sload\n      add\n      dup1\n      dup3\n      sstore\n      dup1\n      swap2\n      pop\n      pop\n      0x01\n      swap1\n      sub\n      swap1\n      0x00\n      mstore\n      keccak256(0x00, 0x20)\n      swap1\n      0x02\n      mul\n      add\n      0x00\n      swap1\n      swap2\n      swap1\n      swap2\n      swap1\n      swap2\n      pop\n      0x00\n      dup3\n      add\n      mload\n      dup2\n      0x00\n      add\n      swap1\n      dup2\n      tag_53\n      swap2\n      swap1\n      tag_54\n      jump\t// in\n    tag_53:\n      pop\n      0x20\n      dup3\n      add\n      mload\n      dup2\n      0x01\n      add\n      exp(0x0100, 0x00)\n      dup2\n      sload\n      dup2\n      0xff\n      mul\n      not\n      and\n      swap1\n      dup4\n      iszero\n      iszero\n      mul\n      or\n      swap1\n      sstore\n      pop\n      pop\n      pop\n        /* \"contracts/Sample/Struct.sol\":434:439  todos */\n      0x00\n        /* \"contracts/Sample/Struct.sol\":445:482  Todo({text: _text, completed: false}) */\n      mload(0x40)\n      dup1\n      0x40\n      add\n      0x40\n      mstore\n      dup1\n        /* \"contracts/Sample/Struct.sol\":457:462  _text */\n      dup5\n      dup5\n        /* \"contracts/Sample/Struct.sol\":445:482  Todo({text: _text, completed: false}) */\n      dup1\n      dup1\n      0x1f\n      add\n      0x20\n      dup1\n      swap2\n      div\n      mul\n      0x20\n      add\n      mload(0x40)\n      swap1\n      dup2\n      add\n      0x40\n      mstore\n      dup1\n      swap4\n      swap3\n      swap2\n      swap1\n      dup2\n      dup2\n      mstore\n      0x20\n      add\n      dup4\n      dup4\n      dup1\n      dup3\n      dup5\n      calldatacopy\n      0x00\n      dup2\n      dup5\n      add\n      mstore\n      not(0x1f)\n      0x1f\n      dup3\n      add\n      and\n      swap1\n      pop\n      dup1\n      dup4\n      add\n      swap3\n      pop\n      pop\n      pop\n      pop\n      pop\n      pop\n      pop\n      dup2\n      mstore\n      0x20\n      add\n        /* \"contracts/Sample/Struct.sol\":475:480  false */\n      0x00\n        /* \"contracts/Sample/Struct.sol\":445:482  Todo({text: _text, completed: false}) */\n      iszero\n      iszero\n      dup2\n      mstore\n      pop\n        /* \"contracts/Sample/Struct.sol\":434:483  todos.push(Todo({text: _text, completed: false})) */\n      swap1\n      dup1\n      0x01\n      dup2\n      sload\n      add\n      dup1\n      dup3\n      sstore\n      dup1\n      swap2\n      pop\n      pop\n      0x01\n      swap1\n      sub\n      swap1\n      0x00\n      mstore\n      keccak256(0x00, 0x20)\n      swap1\n      0x02\n      mul\n      add\n      0x00\n      swap1\n      swap2\n      swap1\n      swap2\n      swap1\n      swap2\n      pop\n      0x00\n      dup3\n      add\n      mload\n      dup2\n      0x00\n      add\n      swap1\n      dup2\n      tag_56\n      swap2\n      swap1\n      tag_54\n      jump\t// in\n    tag_56:\n      pop\n      0x20\n      dup3\n      add\n      mload\n      dup2\n      0x01\n      add\n      exp(0x0100, 0x00)\n      dup2\n      sload\n      dup2\n      0xff\n      mul\n      not\n      and\n      swap1\n      dup4\n      iszero\n      iszero\n      mul\n      or\n      swap1\n      sstore\n      pop\n      pop\n      pop\n        /* \"contracts/Sample/Struct.sol\":554:570  Todo memory todo */\n      tag_57\n      tag_58\n      jump\t// in\n    tag_57:\n        /* \"contracts/Sample/Struct.sol\":593:598  _text */\n      dup3\n      dup3\n        /* \"contracts/Sample/Struct.sol\":581:598  todo.text = _text */\n      dup1\n      dup1\n      0x1f\n      add\n      0x20\n      dup1\n      swap2\n      div\n      mul\n      0x20\n      add\n      mload(0x40)\n      swap1\n      dup2\n      add\n      0x40\n      mstore\n      dup1\n      swap4\n      swap3\n      swap2\n      swap1\n      dup2\n      dup2\n      mstore\n      0x20\n      add\n      dup4\n      dup4\n      dup1\n      dup3\n      dup5\n      calldatacopy\n      0x00\n      dup2\n      dup5\n      add\n      mstore\n      not(0x1f)\n      0x1f\n      dup3\n      add\n      and\n      swap1\n      pop\n      dup1\n      dup4\n      add\n      swap3\n      pop\n      pop\n      pop\n      pop\n      pop\n      pop\n      pop\n        /* \"contracts/Sample/Struct.sol\":581:585  todo */\n      dup2\n        /* \"contracts/Sample/Struct.sol\":581:590  todo.text */\n      0x00\n      add\n        /* \"contracts/Sample/Struct.sol\":581:598  todo.text = _text */\n      dup2\n      swap1\n      mstore\n      pop\n        /* \"contracts/Sample/Struct.sol\":659:664  todos */\n      0x00\n        /* \"contracts/Sample/Struct.sol\":670:674  todo */\n      dup2\n        /* \"contracts/Sample/Struct.sol\":659:675  todos.push(todo) */\n      swap1\n      dup1\n      0x01\n      dup2\n      sload\n      add\n      dup1\n      dup3\n      sstore\n      dup1\n      swap2\n      pop\n      pop\n      0x01\n      swap1\n      sub\n      swap1\n      0x00\n      mstore\n      keccak256(0x00, 0x20)\n      swap1\n      0x02\n      mul\n      add\n      0x00\n      swap1\n      swap2\n      swap1\n      swap2\n      swap1\n      swap2\n      pop\n      0x00\n      dup3\n      add\n      mload\n      dup2\n      0x00\n      add\n      swap1\n      dup2\n      tag_60\n      swap2\n      swap1\n      tag_54\n      jump\t// in\n    tag_60:\n      pop\n      0x20\n      dup3\n      add\n      mload\n      dup2\n      0x01\n      add\n      exp(0x0100, 0x00)\n      dup2\n      sload\n      dup2\n      0xff\n      mul\n      not\n      and\n      swap1\n      dup4\n      iszero\n      iszero\n      mul\n      or\n      swap1\n      sstore\n      pop\n      pop\n      pop\n        /* \"contracts/Sample/Struct.sol\":267:683  {... */\n      pop\n        /* \"contracts/Sample/Struct.sol\":221:683  function create(string calldata _text) public {... */\n      pop\n      pop\n      jump\t// out\n        /* \"contracts/Sample/Struct.sol\":193:212  Todo[] public todos */\n    tag_23:\n      0x00\n      dup2\n      dup2\n      sload\n      dup2\n      lt\n      tag_61\n      jumpi\n      0x00\n      dup1\n      revert\n    tag_61:\n      swap1\n      0x00\n      mstore\n      keccak256(0x00, 0x20)\n      swap1\n      0x02\n      mul\n      add\n      0x00\n      swap2\n      pop\n      swap1\n      pop\n      dup1\n      0x00\n      add\n      dup1\n      sload\n      tag_63\n      swap1\n      tag_46\n      jump\t// in\n    tag_63:\n      dup1\n      0x1f\n      add\n      0x20\n      dup1\n      swap2\n      div\n      mul\n      0x20\n      add\n      mload(0x40)\n      swap1\n      dup2\n      add\n      0x40\n      mstore\n      dup1\n      swap3\n      swap2\n      swap1\n      dup2\n      dup2\n      mstore\n      0x20\n      add\n      dup3\n      dup1\n      sload\n      tag_64\n      swap1\n      tag_46\n      jump\t// in\n    tag_64:\n      dup1\n      iszero\n      tag_65\n      jumpi\n      dup1\n      0x1f\n      lt\n      tag_66\n      jumpi\n      0x0100\n      dup1\n      dup4\n      sload\n      div\n      mul\n      dup4\n      mstore\n      swap2\n      0x20\n      add\n      swap2\n      jump(tag_65)\n    tag_66:\n      dup3\n      add\n      swap2\n      swap1\n      0x00\n      mstore\n      keccak256(0x00, 0x20)\n      swap1\n    tag_67:\n      dup2\n      sload\n      dup2\n      mstore\n      swap1\n      0x01\n      add\n      swap1\n      0x20\n      add\n      dup1\n      dup4\n      gt\n      tag_67\n      jumpi\n      dup3\n      swap1\n      sub\n      0x1f\n      and\n      dup3\n      add\n      swap2\n    tag_65:\n      pop\n      pop\n      pop\n      pop\n      pop\n      swap1\n      dup1\n      0x01\n      add\n      0x00\n      swap1\n      sload\n      swap1\n      0x0100\n      exp\n      swap1\n      div\n      0xff\n      and\n      swap1\n      pop\n      dup3\n      jump\t// out\n        /* \"contracts/Sample/Struct.sol\":1180:1350  function updateText(uint256 _index, string calldata _text) public IndexOutOfBound(_index) {... */\n    tag_28:\n        /* \"contracts/Sample/Struct.sol\":1262:1268  _index */\n      dup3\n        /* \"contracts/Sample/Struct.sol\":760:765  todos */\n      0x00\n        /* \"contracts/Sample/Struct.sol\":760:772  todos.length */\n      dup1\n      sload\n      swap1\n      pop\n        /* \"contracts/Sample/Struct.sol\":751:757  _index */\n      dup2\n        /* \"contracts/Sample/Struct.sol\":751:772  _index < todos.length */\n      lt\n        /* \"contracts/Sample/Struct.sol\":743:780  require(_index < todos.length, \"???\") */\n      tag_69\n      jumpi\n      mload(0x40)\n      0x08c379a000000000000000000000000000000000000000000000000000000000\n      dup2\n      mstore\n      0x04\n      add\n      tag_70\n      swap1\n      tag_32\n      jump\t// in\n    tag_70:\n      mload(0x40)\n      dup1\n      swap2\n      sub\n      swap1\n      revert\n    tag_69:\n        /* \"contracts/Sample/Struct.sol\":1281:1298  Todo storage todo */\n      0x00\n        /* \"contracts/Sample/Struct.sol\":1301:1306  todos */\n      dup1\n        /* \"contracts/Sample/Struct.sol\":1307:1313  _index */\n      dup6\n        /* \"contracts/Sample/Struct.sol\":1301:1314  todos[_index] */\n      dup2\n      sload\n      dup2\n      lt\n      tag_72\n      jumpi\n      tag_73\n      tag_36\n      jump\t// in\n    tag_73:\n    tag_72:\n      swap1\n      0x00\n      mstore\n      keccak256(0x00, 0x20)\n      swap1\n      0x02\n      mul\n      add\n        /* \"contracts/Sample/Struct.sol\":1281:1314  Todo storage todo = todos[_index] */\n      swap1\n      pop\n        /* \"contracts/Sample/Struct.sol\":1337:1342  _text */\n      dup4\n      dup4\n        /* \"contracts/Sample/Struct.sol\":1325:1329  todo */\n      dup3\n        /* \"contracts/Sample/Struct.sol\":1325:1334  todo.text */\n      0x00\n      add\n        /* \"contracts/Sample/Struct.sol\":1325:1342  todo.text = _text */\n      swap2\n      dup3\n      tag_75\n      swap3\n      swap2\n      swap1\n      tag_76\n      jump\t// in\n    tag_75:\n      pop\n        /* \"contracts/Sample/Struct.sol\":1270:1350  {... */\n      pop\n        /* \"contracts/Sample/Struct.sol\":1180:1350  function updateText(uint256 _index, string calldata _text) public IndexOutOfBound(_index) {... */\n      pop\n      pop\n      pop\n      pop\n      jump\t// out\n    tag_58:\n      mload(0x40)\n      dup1\n      0x40\n      add\n      0x40\n      mstore\n      dup1\n      0x60\n      dup2\n      mstore\n      0x20\n      add\n      iszero(iszero(0x00))\n      dup2\n      mstore\n      pop\n      swap1\n      jump\t// out\n        /* \"#utility.yul\":88:205   */\n    tag_78:\n        /* \"#utility.yul\":197:198   */\n      0x00\n        /* \"#utility.yul\":194:195   */\n      dup1\n        /* \"#utility.yul\":187:199   */\n      revert\n        /* \"#utility.yul\":211:328   */\n    tag_79:\n        /* \"#utility.yul\":320:321   */\n      0x00\n        /* \"#utility.yul\":317:318   */\n      dup1\n        /* \"#utility.yul\":310:322   */\n      revert\n        /* \"#utility.yul\":334:411   */\n    tag_80:\n        /* \"#utility.yul\":371:378   */\n      0x00\n        /* \"#utility.yul\":400:405   */\n      dup2\n        /* \"#utility.yul\":389:405   */\n      swap1\n      pop\n        /* \"#utility.yul\":334:411   */\n      swap2\n      swap1\n      pop\n      jump\t// out\n        /* \"#utility.yul\":417:539   */\n    tag_81:\n        /* \"#utility.yul\":490:514   */\n      tag_120\n        /* \"#utility.yul\":508:513   */\n      dup2\n        /* \"#utility.yul\":490:514   */\n      tag_80\n      jump\t// in\n    tag_120:\n        /* \"#utility.yul\":483:488   */\n      dup2\n        /* \"#utility.yul\":480:515   */\n      eq\n        /* \"#utility.yul\":470:533   */\n      tag_121\n      jumpi\n        /* \"#utility.yul\":529:530   */\n      0x00\n        /* \"#utility.yul\":526:527   */\n      dup1\n        /* \"#utility.yul\":519:531   */\n      revert\n        /* \"#utility.yul\":470:533   */\n    tag_121:\n        /* \"#utility.yul\":417:539   */\n      pop\n      jump\t// out\n        /* \"#utility.yul\":545:684   */\n    tag_82:\n        /* \"#utility.yul\":591:596   */\n      0x00\n        /* \"#utility.yul\":629:635   */\n      dup2\n        /* \"#utility.yul\":616:636   */\n      calldataload\n        /* \"#utility.yul\":607:636   */\n      swap1\n      pop\n        /* \"#utility.yul\":645:678   */\n      tag_123\n        /* \"#utility.yul\":672:677   */\n      dup2\n        /* \"#utility.yul\":645:678   */\n      tag_81\n      jump\t// in\n    tag_123:\n        /* \"#utility.yul\":545:684   */\n      swap3\n      swap2\n      pop\n      pop\n      jump\t// out\n        /* \"#utility.yul\":690:1019   */\n    tag_10:\n        /* \"#utility.yul\":749:755   */\n      0x00\n        /* \"#utility.yul\":798:800   */\n      0x20\n        /* \"#utility.yul\":786:795   */\n      dup3\n        /* \"#utility.yul\":777:784   */\n      dup5\n        /* \"#utility.yul\":773:796   */\n      sub\n        /* \"#utility.yul\":769:801   */\n      slt\n        /* \"#utility.yul\":766:885   */\n      iszero\n      tag_125\n      jumpi\n        /* \"#utility.yul\":804:883   */\n      tag_126\n      tag_78\n      jump\t// in\n    tag_126:\n        /* \"#utility.yul\":766:885   */\n    tag_125:\n        /* \"#utility.yul\":924:925   */\n      0x00\n        /* \"#utility.yul\":949:1002   */\n      tag_127\n        /* \"#utility.yul\":994:1001   */\n      dup5\n        /* \"#utility.yul\":985:991   */\n      dup3\n        /* \"#utility.yul\":974:983   */\n      dup6\n        /* \"#utility.yul\":970:992   */\n      add\n        /* \"#utility.yul\":949:1002   */\n      tag_82\n      jump\t// in\n    tag_127:\n        /* \"#utility.yul\":939:1002   */\n      swap2\n      pop\n        /* \"#utility.yul\":895:1012   */\n      pop\n        /* \"#utility.yul\":690:1019   */\n      swap3\n      swap2\n      pop\n      pop\n      jump\t// out\n        /* \"#utility.yul\":1025:1124   */\n    tag_83:\n        /* \"#utility.yul\":1077:1083   */\n      0x00\n        /* \"#utility.yul\":1111:1116   */\n      dup2\n        /* \"#utility.yul\":1105:1117   */\n      mload\n        /* \"#utility.yul\":1095:1117   */\n      swap1\n      pop\n        /* \"#utility.yul\":1025:1124   */\n      swap2\n      swap1\n      pop\n      jump\t// out\n        /* \"#utility.yul\":1130:1299   */\n    tag_84:\n        /* \"#utility.yul\":1214:1225   */\n      0x00\n        /* \"#utility.yul\":1248:1254   */\n      dup3\n        /* \"#utility.yul\":1243:1246   */\n      dup3\n        /* \"#utility.yul\":1236:1255   */\n      mstore\n        /* \"#utility.yul\":1288:1292   */\n      0x20\n        /* \"#utility.yul\":1283:1286   */\n      dup3\n        /* \"#utility.yul\":1279:1293   */\n      add\n        /* \"#utility.yul\":1264:1293   */\n      swap1\n      pop\n        /* \"#utility.yul\":1130:1299   */\n      swap3\n      swap2\n      pop\n      pop\n      jump\t// out\n        /* \"#utility.yul\":1305:1444   */\n    tag_85:\n        /* \"#utility.yul\":1394:1400   */\n      dup3\n        /* \"#utility.yul\":1389:1392   */\n      dup2\n        /* \"#utility.yul\":1384:1387   */\n      dup4\n        /* \"#utility.yul\":1378:1401   */\n      mcopy\n        /* \"#utility.yul\":1435:1436   */\n      0x00\n        /* \"#utility.yul\":1426:1432   */\n      dup4\n        /* \"#utility.yul\":1421:1424   */\n      dup4\n        /* \"#utility.yul\":1417:1433   */\n      add\n        /* \"#utility.yul\":1410:1437   */\n      mstore\n        /* \"#utility.yul\":1305:1444   */\n      pop\n      pop\n      pop\n      jump\t// out\n        /* \"#utility.yul\":1450:1552   */\n    tag_86:\n        /* \"#utility.yul\":1491:1497   */\n      0x00\n        /* \"#utility.yul\":1542:1544   */\n      0x1f\n        /* \"#utility.yul\":1538:1545   */\n      not\n        /* \"#utility.yul\":1533:1535   */\n      0x1f\n        /* \"#utility.yul\":1526:1531   */\n      dup4\n        /* \"#utility.yul\":1522:1536   */\n      add\n        /* \"#utility.yul\":1518:1546   */\n      and\n        /* \"#utility.yul\":1508:1546   */\n      swap1\n      pop\n        /* \"#utility.yul\":1450:1552   */\n      swap2\n      swap1\n      pop\n      jump\t// out\n        /* \"#utility.yul\":1558:1935   */\n    tag_87:\n        /* \"#utility.yul\":1646:1649   */\n      0x00\n        /* \"#utility.yul\":1674:1713   */\n      tag_133\n        /* \"#utility.yul\":1707:1712   */\n      dup3\n        /* \"#utility.yul\":1674:1713   */\n      tag_83\n      jump\t// in\n    tag_133:\n        /* \"#utility.yul\":1729:1800   */\n      tag_134\n        /* \"#utility.yul\":1793:1799   */\n      dup2\n        /* \"#utility.yul\":1788:1791   */\n      dup6\n        /* \"#utility.yul\":1729:1800   */\n      tag_84\n      jump\t// in\n    tag_134:\n        /* \"#utility.yul\":1722:1800   */\n      swap4\n      pop\n        /* \"#utility.yul\":1809:1874   */\n      tag_135\n        /* \"#utility.yul\":1867:1873   */\n      dup2\n        /* \"#utility.yul\":1862:1865   */\n      dup6\n        /* \"#utility.yul\":1855:1859   */\n      0x20\n        /* \"#utility.yul\":1848:1853   */\n      dup7\n        /* \"#utility.yul\":1844:1860   */\n      add\n        /* \"#utility.yul\":1809:1874   */\n      tag_85\n      jump\t// in\n    tag_135:\n        /* \"#utility.yul\":1899:1928   */\n      tag_136\n        /* \"#utility.yul\":1921:1927   */\n      dup2\n        /* \"#utility.yul\":1899:1928   */\n      tag_86\n      jump\t// in\n    tag_136:\n        /* \"#utility.yul\":1894:1897   */\n      dup5\n        /* \"#utility.yul\":1890:1929   */\n      add\n        /* \"#utility.yul\":1883:1929   */\n      swap2\n      pop\n        /* \"#utility.yul\":1650:1935   */\n      pop\n        /* \"#utility.yul\":1558:1935   */\n      swap3\n      swap2\n      pop\n      pop\n      jump\t// out\n        /* \"#utility.yul\":1941:2031   */\n    tag_88:\n        /* \"#utility.yul\":1975:1982   */\n      0x00\n        /* \"#utility.yul\":2018:2023   */\n      dup2\n        /* \"#utility.yul\":2011:2024   */\n      iszero\n        /* \"#utility.yul\":2004:2025   */\n      iszero\n        /* \"#utility.yul\":1993:2025   */\n      swap1\n      pop\n        /* \"#utility.yul\":1941:2031   */\n      swap2\n      swap1\n      pop\n      jump\t// out\n        /* \"#utility.yul\":2037:2146   */\n    tag_89:\n        /* \"#utility.yul\":2118:2139   */\n      tag_139\n        /* \"#utility.yul\":2133:2138   */\n      dup2\n        /* \"#utility.yul\":2118:2139   */\n      tag_88\n      jump\t// in\n    tag_139:\n        /* \"#utility.yul\":2113:2116   */\n      dup3\n        /* \"#utility.yul\":2106:2140   */\n      mstore\n        /* \"#utility.yul\":2037:2146   */\n      pop\n      pop\n      jump\t// out\n        /* \"#utility.yul\":2152:2563   */\n    tag_16:\n        /* \"#utility.yul\":2287:2291   */\n      0x00\n        /* \"#utility.yul\":2325:2327   */\n      0x40\n        /* \"#utility.yul\":2314:2323   */\n      dup3\n        /* \"#utility.yul\":2310:2328   */\n      add\n        /* \"#utility.yul\":2302:2328   */\n      swap1\n      pop\n        /* \"#utility.yul\":2374:2383   */\n      dup2\n        /* \"#utility.yul\":2368:2372   */\n      dup2\n        /* \"#utility.yul\":2364:2384   */\n      sub\n        /* \"#utility.yul\":2360:2361   */\n      0x00\n        /* \"#utility.yul\":2349:2358   */\n      dup4\n        /* \"#utility.yul\":2345:2362   */\n      add\n        /* \"#utility.yul\":2338:2385   */\n      mstore\n        /* \"#utility.yul\":2402:2480   */\n      tag_141\n        /* \"#utility.yul\":2475:2479   */\n      dup2\n        /* \"#utility.yul\":2466:2472   */\n      dup6\n        /* \"#utility.yul\":2402:2480   */\n      tag_87\n      jump\t// in\n    tag_141:\n        /* \"#utility.yul\":2394:2480   */\n      swap1\n      pop\n        /* \"#utility.yul\":2490:2556   */\n      tag_142\n        /* \"#utility.yul\":2552:2554   */\n      0x20\n        /* \"#utility.yul\":2541:2550   */\n      dup4\n        /* \"#utility.yul\":2537:2555   */\n      add\n        /* \"#utility.yul\":2528:2534   */\n      dup5\n        /* \"#utility.yul\":2490:2556   */\n      tag_89\n      jump\t// in\n    tag_142:\n        /* \"#utility.yul\":2152:2563   */\n      swap4\n      swap3\n      pop\n      pop\n      pop\n      jump\t// out\n        /* \"#utility.yul\":2569:2686   */\n    tag_90:\n        /* \"#utility.yul\":2678:2679   */\n      0x00\n        /* \"#utility.yul\":2675:2676   */\n      dup1\n        /* \"#utility.yul\":2668:2680   */\n      revert\n        /* \"#utility.yul\":2692:2809   */\n    tag_91:\n        /* \"#utility.yul\":2801:2802   */\n      0x00\n        /* \"#utility.yul\":2798:2799   */\n      dup1\n        /* \"#utility.yul\":2791:2803   */\n      revert\n        /* \"#utility.yul\":2815:2932   */\n    tag_92:\n        /* \"#utility.yul\":2924:2925   */\n      0x00\n        /* \"#utility.yul\":2921:2922   */\n      dup1\n        /* \"#utility.yul\":2914:2926   */\n      revert\n        /* \"#utility.yul\":2952:3505   */\n    tag_93:\n        /* \"#utility.yul\":3010:3018   */\n      0x00\n        /* \"#utility.yul\":3020:3026   */\n      dup1\n        /* \"#utility.yul\":3070:3073   */\n      dup4\n        /* \"#utility.yul\":3063:3067   */\n      0x1f\n        /* \"#utility.yul\":3055:3061   */\n      dup5\n        /* \"#utility.yul\":3051:3068   */\n      add\n        /* \"#utility.yul\":3047:3074   */\n      slt\n        /* \"#utility.yul\":3037:3159   */\n      tag_147\n      jumpi\n        /* \"#utility.yul\":3078:3157   */\n      tag_148\n      tag_90\n      jump\t// in\n    tag_148:\n        /* \"#utility.yul\":3037:3159   */\n    tag_147:\n        /* \"#utility.yul\":3191:3197   */\n      dup3\n        /* \"#utility.yul\":3178:3198   */\n      calldataload\n        /* \"#utility.yul\":3168:3198   */\n      swap1\n      pop\n        /* \"#utility.yul\":3221:3239   */\n      0xffffffffffffffff\n        /* \"#utility.yul\":3213:3219   */\n      dup2\n        /* \"#utility.yul\":3210:3240   */\n      gt\n        /* \"#utility.yul\":3207:3324   */\n      iszero\n      tag_149\n      jumpi\n        /* \"#utility.yul\":3243:3322   */\n      tag_150\n      tag_91\n      jump\t// in\n    tag_150:\n        /* \"#utility.yul\":3207:3324   */\n    tag_149:\n        /* \"#utility.yul\":3357:3361   */\n      0x20\n        /* \"#utility.yul\":3349:3355   */\n      dup4\n        /* \"#utility.yul\":3345:3362   */\n      add\n        /* \"#utility.yul\":3333:3362   */\n      swap2\n      pop\n        /* \"#utility.yul\":3411:3414   */\n      dup4\n        /* \"#utility.yul\":3403:3407   */\n      0x01\n        /* \"#utility.yul\":3395:3401   */\n      dup3\n        /* \"#utility.yul\":3391:3408   */\n      mul\n        /* \"#utility.yul\":3381:3389   */\n      dup4\n        /* \"#utility.yul\":3377:3409   */\n      add\n        /* \"#utility.yul\":3374:3415   */\n      gt\n        /* \"#utility.yul\":3371:3499   */\n      iszero\n      tag_151\n      jumpi\n        /* \"#utility.yul\":3418:3497   */\n      tag_152\n      tag_92\n      jump\t// in\n    tag_152:\n        /* \"#utility.yul\":3371:3499   */\n    tag_151:\n        /* \"#utility.yul\":2952:3505   */\n      swap3\n      pop\n      swap3\n      swap1\n      pop\n      jump\t// out\n        /* \"#utility.yul\":3511:4040   */\n    tag_19:\n        /* \"#utility.yul\":3582:3588   */\n      0x00\n        /* \"#utility.yul\":3590:3596   */\n      dup1\n        /* \"#utility.yul\":3639:3641   */\n      0x20\n        /* \"#utility.yul\":3627:3636   */\n      dup4\n        /* \"#utility.yul\":3618:3625   */\n      dup6\n        /* \"#utility.yul\":3614:3637   */\n      sub\n        /* \"#utility.yul\":3610:3642   */\n      slt\n        /* \"#utility.yul\":3607:3726   */\n      iszero\n      tag_154\n      jumpi\n        /* \"#utility.yul\":3645:3724   */\n      tag_155\n      tag_78\n      jump\t// in\n    tag_155:\n        /* \"#utility.yul\":3607:3726   */\n    tag_154:\n        /* \"#utility.yul\":3793:3794   */\n      0x00\n        /* \"#utility.yul\":3782:3791   */\n      dup4\n        /* \"#utility.yul\":3778:3795   */\n      add\n        /* \"#utility.yul\":3765:3796   */\n      calldataload\n        /* \"#utility.yul\":3823:3841   */\n      0xffffffffffffffff\n        /* \"#utility.yul\":3815:3821   */\n      dup2\n        /* \"#utility.yul\":3812:3842   */\n      gt\n        /* \"#utility.yul\":3809:3926   */\n      iszero\n      tag_156\n      jumpi\n        /* \"#utility.yul\":3845:3924   */\n      tag_157\n      tag_79\n      jump\t// in\n    tag_157:\n        /* \"#utility.yul\":3809:3926   */\n    tag_156:\n        /* \"#utility.yul\":3958:4023   */\n      tag_158\n        /* \"#utility.yul\":4015:4022   */\n      dup6\n        /* \"#utility.yul\":4006:4012   */\n      dup3\n        /* \"#utility.yul\":3995:4004   */\n      dup7\n        /* \"#utility.yul\":3991:4013   */\n      add\n        /* \"#utility.yul\":3958:4023   */\n      tag_93\n      jump\t// in\n    tag_158:\n        /* \"#utility.yul\":3940:4023   */\n      swap3\n      pop\n      swap3\n      pop\n        /* \"#utility.yul\":3736:4033   */\n      pop\n        /* \"#utility.yul\":3511:4040   */\n      swap3\n      pop\n      swap3\n      swap1\n      pop\n      jump\t// out\n        /* \"#utility.yul\":4046:4720   */\n    tag_27:\n        /* \"#utility.yul\":4126:4132   */\n      0x00\n        /* \"#utility.yul\":4134:4140   */\n      dup1\n        /* \"#utility.yul\":4142:4148   */\n      0x00\n        /* \"#utility.yul\":4191:4193   */\n      0x40\n        /* \"#utility.yul\":4179:4188   */\n      dup5\n        /* \"#utility.yul\":4170:4177   */\n      dup7\n        /* \"#utility.yul\":4166:4189   */\n      sub\n        /* \"#utility.yul\":4162:4194   */\n      slt\n        /* \"#utility.yul\":4159:4278   */\n      iszero\n      tag_160\n      jumpi\n        /* \"#utility.yul\":4197:4276   */\n      tag_161\n      tag_78\n      jump\t// in\n    tag_161:\n        /* \"#utility.yul\":4159:4278   */\n    tag_160:\n        /* \"#utility.yul\":4317:4318   */\n      0x00\n        /* \"#utility.yul\":4342:4395   */\n      tag_162\n        /* \"#utility.yul\":4387:4394   */\n      dup7\n        /* \"#utility.yul\":4378:4384   */\n      dup3\n        /* \"#utility.yul\":4367:4376   */\n      dup8\n        /* \"#utility.yul\":4363:4385   */\n      add\n        /* \"#utility.yul\":4342:4395   */\n      tag_82\n      jump\t// in\n    tag_162:\n        /* \"#utility.yul\":4332:4395   */\n      swap4\n      pop\n        /* \"#utility.yul\":4288:4405   */\n      pop\n        /* \"#utility.yul\":4472:4474   */\n      0x20\n        /* \"#utility.yul\":4461:4470   */\n      dup5\n        /* \"#utility.yul\":4457:4475   */\n      add\n        /* \"#utility.yul\":4444:4476   */\n      calldataload\n        /* \"#utility.yul\":4503:4521   */\n      0xffffffffffffffff\n        /* \"#utility.yul\":4495:4501   */\n      dup2\n        /* \"#utility.yul\":4492:4522   */\n      gt\n        /* \"#utility.yul\":4489:4606   */\n      iszero\n      tag_163\n      jumpi\n        /* \"#utility.yul\":4525:4604   */\n      tag_164\n      tag_79\n      jump\t// in\n    tag_164:\n        /* \"#utility.yul\":4489:4606   */\n    tag_163:\n        /* \"#utility.yul\":4638:4703   */\n      tag_165\n        /* \"#utility.yul\":4695:4702   */\n      dup7\n        /* \"#utility.yul\":4686:4692   */\n      dup3\n        /* \"#utility.yul\":4675:4684   */\n      dup8\n        /* \"#utility.yul\":4671:4693   */\n      add\n        /* \"#utility.yul\":4638:4703   */\n      tag_93\n      jump\t// in\n    tag_165:\n        /* \"#utility.yul\":4620:4703   */\n      swap3\n      pop\n      swap3\n      pop\n        /* \"#utility.yul\":4415:4713   */\n      pop\n        /* \"#utility.yul\":4046:4720   */\n      swap3\n      pop\n      swap3\n      pop\n      swap3\n      jump\t// out\n        /* \"#utility.yul\":4726:4879   */\n    tag_94:\n        /* \"#utility.yul\":4866:4871   */\n      0x3f3f3f0000000000000000000000000000000000000000000000000000000000\n        /* \"#utility.yul\":4862:4863   */\n      0x00\n        /* \"#utility.yul\":4854:4860   */\n      dup3\n        /* \"#utility.yul\":4850:4864   */\n      add\n        /* \"#utility.yul\":4843:4872   */\n      mstore\n        /* \"#utility.yul\":4726:4879   */\n      pop\n      jump\t// out\n        /* \"#utility.yul\":4885:5250   */\n    tag_95:\n        /* \"#utility.yul\":5027:5030   */\n      0x00\n        /* \"#utility.yul\":5048:5114   */\n      tag_168\n        /* \"#utility.yul\":5112:5113   */\n      0x03\n        /* \"#utility.yul\":5107:5110   */\n      dup4\n        /* \"#utility.yul\":5048:5114   */\n      tag_84\n      jump\t// in\n    tag_168:\n        /* \"#utility.yul\":5041:5114   */\n      swap2\n      pop\n        /* \"#utility.yul\":5123:5216   */\n      tag_169\n        /* \"#utility.yul\":5212:5215   */\n      dup3\n        /* \"#utility.yul\":5123:5216   */\n      tag_94\n      jump\t// in\n    tag_169:\n        /* \"#utility.yul\":5241:5243   */\n      0x20\n        /* \"#utility.yul\":5236:5239   */\n      dup3\n        /* \"#utility.yul\":5232:5244   */\n      add\n        /* \"#utility.yul\":5225:5244   */\n      swap1\n      pop\n        /* \"#utility.yul\":4885:5250   */\n      swap2\n      swap1\n      pop\n      jump\t// out\n        /* \"#utility.yul\":5256:5675   */\n    tag_32:\n        /* \"#utility.yul\":5422:5426   */\n      0x00\n        /* \"#utility.yul\":5460:5462   */\n      0x20\n        /* \"#utility.yul\":5449:5458   */\n      dup3\n        /* \"#utility.yul\":5445:5463   */\n      add\n        /* \"#utility.yul\":5437:5463   */\n      swap1\n      pop\n        /* \"#utility.yul\":5509:5518   */\n      dup2\n        /* \"#utility.yul\":5503:5507   */\n      dup2\n        /* \"#utility.yul\":5499:5519   */\n      sub\n        /* \"#utility.yul\":5495:5496   */\n      0x00\n        /* \"#utility.yul\":5484:5493   */\n      dup4\n        /* \"#utility.yul\":5480:5497   */\n      add\n        /* \"#utility.yul\":5473:5520   */\n      mstore\n        /* \"#utility.yul\":5537:5668   */\n      tag_171\n        /* \"#utility.yul\":5663:5667   */\n      dup2\n        /* \"#utility.yul\":5537:5668   */\n      tag_95\n      jump\t// in\n    tag_171:\n        /* \"#utility.yul\":5529:5668   */\n      swap1\n      pop\n        /* \"#utility.yul\":5256:5675   */\n      swap2\n      swap1\n      pop\n      jump\t// out\n        /* \"#utility.yul\":5681:5861   */\n    tag_36:\n        /* \"#utility.yul\":5729:5806   */\n      0x4e487b7100000000000000000000000000000000000000000000000000000000\n        /* \"#utility.yul\":5726:5727   */\n      0x00\n        /* \"#utility.yul\":5719:5807   */\n      mstore\n        /* \"#utility.yul\":5826:5830   */\n      0x32\n        /* \"#utility.yul\":5823:5824   */\n      0x04\n        /* \"#utility.yul\":5816:5831   */\n      mstore\n        /* \"#utility.yul\":5850:5854   */\n      0x24\n        /* \"#utility.yul\":5847:5848   */\n      0x00\n        /* \"#utility.yul\":5840:5855   */\n      revert\n        /* \"#utility.yul\":5867:6047   */\n    tag_96:\n        /* \"#utility.yul\":5915:5992   */\n      0x4e487b7100000000000000000000000000000000000000000000000000000000\n        /* \"#utility.yul\":5912:5913   */\n      0x00\n        /* \"#utility.yul\":5905:5993   */\n      mstore\n        /* \"#utility.yul\":6012:6016   */\n      0x22\n        /* \"#utility.yul\":6009:6010   */\n      0x04\n        /* \"#utility.yul\":6002:6017   */\n      mstore\n        /* \"#utility.yul\":6036:6040   */\n      0x24\n        /* \"#utility.yul\":6033:6034   */\n      0x00\n        /* \"#utility.yul\":6026:6041   */\n      revert\n        /* \"#utility.yul\":6053:6373   */\n    tag_46:\n        /* \"#utility.yul\":6097:6103   */\n      0x00\n        /* \"#utility.yul\":6134:6135   */\n      0x02\n        /* \"#utility.yul\":6128:6132   */\n      dup3\n        /* \"#utility.yul\":6124:6136   */\n      div\n        /* \"#utility.yul\":6114:6136   */\n      swap1\n      pop\n        /* \"#utility.yul\":6181:6182   */\n      0x01\n        /* \"#utility.yul\":6175:6179   */\n      dup3\n        /* \"#utility.yul\":6171:6183   */\n      and\n        /* \"#utility.yul\":6202:6220   */\n      dup1\n        /* \"#utility.yul\":6192:6273   */\n      tag_175\n      jumpi\n        /* \"#utility.yul\":6258:6262   */\n      0x7f\n        /* \"#utility.yul\":6250:6256   */\n      dup3\n        /* \"#utility.yul\":6246:6263   */\n      and\n        /* \"#utility.yul\":6236:6263   */\n      swap2\n      pop\n        /* \"#utility.yul\":6192:6273   */\n    tag_175:\n        /* \"#utility.yul\":6320:6322   */\n      0x20\n        /* \"#utility.yul\":6312:6318   */\n      dup3\n        /* \"#utility.yul\":6309:6323   */\n      lt\n        /* \"#utility.yul\":6289:6307   */\n      dup2\n        /* \"#utility.yul\":6286:6324   */\n      sub\n        /* \"#utility.yul\":6283:6367   */\n      tag_176\n      jumpi\n        /* \"#utility.yul\":6339:6357   */\n      tag_177\n      tag_96\n      jump\t// in\n    tag_177:\n        /* \"#utility.yul\":6283:6367   */\n    tag_176:\n        /* \"#utility.yul\":6104:6373   */\n      pop\n        /* \"#utility.yul\":6053:6373   */\n      swap2\n      swap1\n      pop\n      jump\t// out\n        /* \"#utility.yul\":6379:6559   */\n    tag_97:\n        /* \"#utility.yul\":6427:6504   */\n      0x4e487b7100000000000000000000000000000000000000000000000000000000\n        /* \"#utility.yul\":6424:6425   */\n      0x00\n        /* \"#utility.yul\":6417:6505   */\n      mstore\n        /* \"#utility.yul\":6524:6528   */\n      0x41\n        /* \"#utility.yul\":6521:6522   */\n      0x04\n        /* \"#utility.yul\":6514:6529   */\n      mstore\n        /* \"#utility.yul\":6548:6552   */\n      0x24\n        /* \"#utility.yul\":6545:6546   */\n      0x00\n        /* \"#utility.yul\":6538:6553   */\n      revert\n        /* \"#utility.yul\":6565:6706   */\n    tag_98:\n        /* \"#utility.yul\":6614:6618   */\n      0x00\n        /* \"#utility.yul\":6637:6640   */\n      dup2\n        /* \"#utility.yul\":6629:6640   */\n      swap1\n      pop\n        /* \"#utility.yul\":6660:6663   */\n      dup2\n        /* \"#utility.yul\":6657:6658   */\n      0x00\n        /* \"#utility.yul\":6650:6664   */\n      mstore\n        /* \"#utility.yul\":6694:6698   */\n      0x20\n        /* \"#utility.yul\":6691:6692   */\n      0x00\n        /* \"#utility.yul\":6681:6699   */\n      keccak256\n        /* \"#utility.yul\":6673:6699   */\n      swap1\n      pop\n        /* \"#utility.yul\":6565:6706   */\n      swap2\n      swap1\n      pop\n      jump\t// out\n        /* \"#utility.yul\":6712:6805   */\n    tag_99:\n        /* \"#utility.yul\":6749:6755   */\n      0x00\n        /* \"#utility.yul\":6796:6798   */\n      0x20\n        /* \"#utility.yul\":6791:6793   */\n      0x1f\n        /* \"#utility.yul\":6784:6789   */\n      dup4\n        /* \"#utility.yul\":6780:6794   */\n      add\n        /* \"#utility.yul\":6776:6799   */\n      div\n        /* \"#utility.yul\":6766:6799   */\n      swap1\n      pop\n        /* \"#utility.yul\":6712:6805   */\n      swap2\n      swap1\n      pop\n      jump\t// out\n        /* \"#utility.yul\":6811:6918   */\n    tag_100:\n        /* \"#utility.yul\":6855:6863   */\n      0x00\n        /* \"#utility.yul\":6905:6910   */\n      dup3\n        /* \"#utility.yul\":6899:6903   */\n      dup3\n        /* \"#utility.yul\":6895:6911   */\n      shl\n        /* \"#utility.yul\":6874:6911   */\n      swap1\n      pop\n        /* \"#utility.yul\":6811:6918   */\n      swap3\n      swap2\n      pop\n      pop\n      jump\t// out\n        /* \"#utility.yul\":6924:7317   */\n    tag_101:\n        /* \"#utility.yul\":6993:6999   */\n      0x00\n        /* \"#utility.yul\":7043:7044   */\n      0x08\n        /* \"#utility.yul\":7031:7041   */\n      dup4\n        /* \"#utility.yul\":7027:7045   */\n      mul\n        /* \"#utility.yul\":7066:7163   */\n      tag_183\n        /* \"#utility.yul\":7096:7162   */\n      0xffffffffffffffffffffffffffffffffffffffffffffffffffffffffffffffff\n        /* \"#utility.yul\":7085:7094   */\n      dup3\n        /* \"#utility.yul\":7066:7163   */\n      tag_100\n      jump\t// in\n    tag_183:\n        /* \"#utility.yul\":7184:7223   */\n      tag_184\n        /* \"#utility.yul\":7214:7222   */\n      dup7\n        /* \"#utility.yul\":7203:7212   */\n      dup4\n        /* \"#utility.yul\":7184:7223   */\n      tag_100\n      jump\t// in\n    tag_184:\n        /* \"#utility.yul\":7172:7223   */\n      swap6\n      pop\n        /* \"#utility.yul\":7256:7260   */\n      dup1\n        /* \"#utility.yul\":7252:7261   */\n      not\n        /* \"#utility.yul\":7245:7250   */\n      dup5\n        /* \"#utility.yul\":7241:7262   */\n      and\n        /* \"#utility.yul\":7232:7262   */\n      swap4\n      pop\n        /* \"#utility.yul\":7305:7309   */\n      dup1\n        /* \"#utility.yul\":7295:7303   */\n      dup7\n        /* \"#utility.yul\":7291:7310   */\n      and\n        /* \"#utility.yul\":7284:7289   */\n      dup5\n        /* \"#utility.yul\":7281:7311   */\n      or\n        /* \"#utility.yul\":7271:7311   */\n      swap3\n      pop\n        /* \"#utility.yul\":7000:7317   */\n      pop\n      pop\n        /* \"#utility.yul\":6924:7317   */\n      swap4\n      swap3\n      pop\n      pop\n      pop\n      jump\t// out\n        /* \"#utility.yul\":7323:7383   */\n    tag_102:\n        /* \"#utility.yul\":7351:7354   */\n      0x00\n        /* \"#utility.yul\":7372:7377   */\n      dup2\n        /* \"#utility.yul\":7365:7377   */\n      swap1\n      pop\n        /* \"#utility.yul\":7323:7383   */\n      swap2\n      swap1\n      pop\n      jump\t// out\n        /* \"#utility.yul\":7389:7531   */\n    tag_103:\n        /* \"#utility.yul\":7439:7448   */\n      0x00\n        /* \"#utility.yul\":7472:7525   */\n      tag_187\n        /* \"#utility.yul\":7490:7524   */\n      tag_188\n        /* \"#utility.yul\":7499:7523   */\n      tag_189\n        /* \"#utility.yul\":7517:7522   */\n      dup5\n        /* \"#utility.yul\":7499:7523   */\n      tag_80\n      jump\t// in\n    tag_189:\n        /* \"#utility.yul\":7490:7524   */\n      tag_102\n      jump\t// in\n    tag_188:\n        /* \"#utility.yul\":7472:7525   */\n      tag_80\n      jump\t// in\n    tag_187:\n        /* \"#utility.yul\":7459:7525   */\n      swap1\n      pop\n        /* \"#utility.yul\":7389:7531   */\n      swap2\n      swap1\n      pop\n      jump\t// out\n        /* \"#utility.yul\":7537:7612   */\n    tag_104:\n        /* \"#utility.yul\":7580:7583   */\n      0x00\n        /* \"#utility.yul\":7601:7606   */\n      dup2\n        /* \"#utility.yul\":7594:7606   */\n      swap1\n      pop\n        /* \"#utility.yul\":7537:7612   */\n      swap2\n      swap1\n      pop\n      jump\t// out\n        /* \"#utility.yul\":7618:7887   */\n    tag_105:\n        /* \"#utility.yul\":7728:7767   */\n      tag_192\n        /* \"#utility.yul\":7759:7766   */\n      dup4\n        /* \"#utility.yul\":7728:7767   */\n      tag_103\n      jump\t// in\n    tag_192:\n        /* \"#utility.yul\":7789:7880   */\n      tag_193\n        /* \"#utility.yul\":7838:7879   */\n      tag_194\n        /* \"#utility.yul\":7862:7878   */\n      dup3\n        /* \"#utility.yul\":7838:7879   */\n      tag_104\n      jump\t// in\n    tag_194:\n        /* \"#utility.yul\":7830:7836   */\n      dup5\n        /* \"#utility.yul\":7823:7827   */\n      dup5\n        /* \"#utility.yul\":7817:7828   */\n      sload\n        /* \"#utility.yul\":7789:7880   */\n      tag_101\n      jump\t// in\n    tag_193:\n        /* \"#utility.yul\":7783:7787   */\n      dup3\n        /* \"#utility.yul\":7776:7881   */\n      sstore\n        /* \"#utility.yul\":7694:7887   */\n      pop\n        /* \"#utility.yul\":7618:7887   */\n      pop\n      pop\n      pop\n      jump\t// out\n        /* \"#utility.yul\":7893:7966   */\n    tag_106:\n        /* \"#utility.yul\":7938:7941   */\n      0x00\n        /* \"#utility.yul\":7893:7966   */\n      swap1\n      jump\t// out\n        /* \"#utility.yul\":7972:8161   */\n    tag_107:\n        /* \"#utility.yul\":8049:8081   */\n      tag_197\n      tag_106\n      jump\t// in\n    tag_197:\n        /* \"#utility.yul\":8090:8155   */\n      tag_198\n        /* \"#utility.yul\":8148:8154   */\n      dup2\n        /* \"#utility.yul\":8140:8146   */\n      dup5\n        /* \"#utility.yul\":8134:8138   */\n      dup5\n        /* \"#utility.yul\":8090:8155   */\n      tag_105\n      jump\t// in\n    tag_198:\n        /* \"#utility.yul\":8025:8161   */\n      pop\n        /* \"#utility.yul\":7972:8161   */\n      pop\n      pop\n      jump\t// out\n        /* \"#utility.yul\":8167:8353   */\n    tag_108:\n        /* \"#utility.yul\":8227:8347   */\n    tag_200:\n        /* \"#utility.yul\":8244:8247   */\n      dup2\n        /* \"#utility.yul\":8237:8242   */\n      dup2\n        /* \"#utility.yul\":8234:8248   */\n      lt\n        /* \"#utility.yul\":8227:8347   */\n      iszero\n      tag_202\n      jumpi\n        /* \"#utility.yul\":8298:8337   */\n      tag_203\n        /* \"#utility.yul\":8335:8336   */\n      0x00\n        /* \"#utility.yul\":8328:8333   */\n      dup3\n        /* \"#utility.yul\":8298:8337   */\n      tag_107\n      jump\t// in\n    tag_203:\n        /* \"#utility.yul\":8271:8272   */\n      0x01\n        /* \"#utility.yul\":8264:8269   */\n      dup2\n        /* \"#utility.yul\":8260:8273   */\n      add\n        /* \"#utility.yul\":8251:8273   */\n      swap1\n      pop\n        /* \"#utility.yul\":8227:8347   */\n      jump(tag_200)\n    tag_202:\n        /* \"#utility.yul\":8167:8353   */\n      pop\n      pop\n      jump\t// out\n        /* \"#utility.yul\":8359:8902   */\n    tag_109:\n        /* \"#utility.yul\":8460:8462   */\n      0x1f\n        /* \"#utility.yul\":8455:8458   */\n      dup3\n        /* \"#utility.yul\":8452:8463   */\n      gt\n        /* \"#utility.yul\":8449:8895   */\n      iszero\n      tag_205\n      jumpi\n        /* \"#utility.yul\":8494:8532   */\n      tag_206\n        /* \"#utility.yul\":8526:8531   */\n      dup2\n        /* \"#utility.yul\":8494:8532   */\n      tag_98\n      jump\t// in\n    tag_206:\n        /* \"#utility.yul\":8578:8607   */\n      tag_207\n        /* \"#utility.yul\":8596:8606   */\n      dup5\n        /* \"#utility.yul\":8578:8607   */\n      tag_99\n      jump\t// in\n    tag_207:\n        /* \"#utility.yul\":8568:8576   */\n      dup2\n        /* \"#utility.yul\":8564:8608   */\n      add\n        /* \"#utility.yul\":8761:8763   */\n      0x20\n        /* \"#utility.yul\":8749:8759   */\n      dup6\n        /* \"#utility.yul\":8746:8764   */\n      lt\n        /* \"#utility.yul\":8743:8792   */\n      iszero\n      tag_208\n      jumpi\n        /* \"#utility.yul\":8782:8790   */\n      dup2\n        /* \"#utility.yul\":8767:8790   */\n      swap1\n      pop\n        /* \"#utility.yul\":8743:8792   */\n    tag_208:\n        /* \"#utility.yul\":8805:8885   */\n      tag_209\n        /* \"#utility.yul\":8861:8883   */\n      tag_210\n        /* \"#utility.yul\":8879:8882   */\n      dup6\n        /* \"#utility.yul\":8861:8883   */\n      tag_99\n      jump\t// in\n    tag_210:\n        /* \"#utility.yul\":8851:8859   */\n      dup4\n        /* \"#utility.yul\":8847:8884   */\n      add\n        /* \"#utility.yul\":8834:8845   */\n      dup3\n        /* \"#utility.yul\":8805:8885   */\n      tag_108\n      jump\t// in\n    tag_209:\n        /* \"#utility.yul\":8464:8895   */\n      pop\n      pop\n        /* \"#utility.yul\":8449:8895   */\n    tag_205:\n        /* \"#utility.yul\":8359:8902   */\n      pop\n      pop\n      pop\n      jump\t// out\n        /* \"#utility.yul\":8908:9025   */\n    tag_110:\n        /* \"#utility.yul\":8962:8970   */\n      0x00\n        /* \"#utility.yul\":9012:9017   */\n      dup3\n        /* \"#utility.yul\":9006:9010   */\n      dup3\n        /* \"#utility.yul\":9002:9018   */\n      shr\n        /* \"#utility.yul\":8981:9018   */\n      swap1\n      pop\n        /* \"#utility.yul\":8908:9025   */\n      swap3\n      swap2\n      pop\n      pop\n      jump\t// out\n        /* \"#utility.yul\":9031:9200   */\n    tag_111:\n        /* \"#utility.yul\":9075:9081   */\n      0x00\n        /* \"#utility.yul\":9108:9159   */\n      tag_213\n        /* \"#utility.yul\":9156:9157   */\n      0x00\n        /* \"#utility.yul\":9152:9158   */\n      not\n        /* \"#utility.yul\":9144:9149   */\n      dup5\n        /* \"#utility.yul\":9141:9142   */\n      0x08\n        /* \"#utility.yul\":9137:9150   */\n      mul\n        /* \"#utility.yul\":9108:9159   */\n      tag_110\n      jump\t// in\n    tag_213:\n        /* \"#utility.yul\":9104:9160   */\n      not\n        /* \"#utility.yul\":9189:9193   */\n      dup1\n        /* \"#utility.yul\":9183:9187   */\n      dup4\n        /* \"#utility.yul\":9179:9194   */\n      and\n        /* \"#utility.yul\":9169:9194   */\n      swap2\n      pop\n        /* \"#utility.yul\":9082:9200   */\n      pop\n        /* \"#utility.yul\":9031:9200   */\n      swap3\n      swap2\n      pop\n      pop\n      jump\t// out\n        /* \"#utility.yul\":9205:9500   */\n    tag_112:\n        /* \"#utility.yul\":9281:9285   */\n      0x00\n        /* \"#utility.yul\":9427:9456   */\n      tag_215\n        /* \"#utility.yul\":9452:9455   */\n      dup4\n        /* \"#utility.yul\":9446:9450   */\n      dup4\n        /* \"#utility.yul\":9427:9456   */\n      tag_111\n      jump\t// in\n    tag_215:\n        /* \"#utility.yul\":9419:9456   */\n      swap2\n      pop\n        /* \"#utility.yul\":9489:9492   */\n      dup3\n        /* \"#utility.yul\":9486:9487   */\n      0x02\n        /* \"#utility.yul\":9482:9493   */\n      mul\n        /* \"#utility.yul\":9476:9480   */\n      dup3\n        /* \"#utility.yul\":9473:9494   */\n      or\n        /* \"#utility.yul\":9465:9494   */\n      swap1\n      pop\n        /* \"#utility.yul\":9205:9500   */\n      swap3\n      swap2\n      pop\n      pop\n      jump\t// out\n        /* \"#utility.yul\":9505:10900   */\n    tag_54:\n        /* \"#utility.yul\":9622:9659   */\n      tag_217\n        /* \"#utility.yul\":9655:9658   */\n      dup3\n        /* \"#utility.yul\":9622:9659   */\n      tag_83\n      jump\t// in\n    tag_217:\n        /* \"#utility.yul\":9724:9742   */\n      0xffffffffffffffff\n        /* \"#utility.yul\":9716:9722   */\n      dup2\n        /* \"#utility.yul\":9713:9743   */\n      gt\n        /* \"#utility.yul\":9710:9766   */\n      iszero\n      tag_218\n      jumpi\n        /* \"#utility.yul\":9746:9764   */\n      tag_219\n      tag_97\n      jump\t// in\n    tag_219:\n        /* \"#utility.yul\":9710:9766   */\n    tag_218:\n        /* \"#utility.yul\":9790:9828   */\n      tag_220\n        /* \"#utility.yul\":9822:9826   */\n      dup3\n        /* \"#utility.yul\":9816:9827   */\n      sload\n        /* \"#utility.yul\":9790:9828   */\n      tag_46\n      jump\t// in\n    tag_220:\n        /* \"#utility.yul\":9875:9942   */\n      tag_221\n        /* \"#utility.yul\":9935:9941   */\n      dup3\n        /* \"#utility.yul\":9927:9933   */\n      dup3\n        /* \"#utility.yul\":9921:9925   */\n      dup6\n        /* \"#utility.yul\":9875:9942   */\n      tag_109\n      jump\t// in\n    tag_221:\n        /* \"#utility.yul\":9969:9970   */\n      0x00\n        /* \"#utility.yul\":9993:9997   */\n      0x20\n        /* \"#utility.yul\":9980:9997   */\n      swap1\n      pop\n        /* \"#utility.yul\":10025:10027   */\n      0x1f\n        /* \"#utility.yul\":10017:10023   */\n      dup4\n        /* \"#utility.yul\":10014:10028   */\n      gt\n        /* \"#utility.yul\":10042:10043   */\n      0x01\n        /* \"#utility.yul\":10037:10655   */\n      dup2\n      eq\n      tag_223\n      jumpi\n        /* \"#utility.yul\":10699:10700   */\n      0x00\n        /* \"#utility.yul\":10716:10722   */\n      dup5\n        /* \"#utility.yul\":10713:10790   */\n      iszero\n      tag_224\n      jumpi\n        /* \"#utility.yul\":10765:10774   */\n      dup3\n        /* \"#utility.yul\":10760:10763   */\n      dup8\n        /* \"#utility.yul\":10756:10775   */\n      add\n        /* \"#utility.yul\":10750:10776   */\n      mload\n        /* \"#utility.yul\":10741:10776   */\n      swap1\n      pop\n        /* \"#utility.yul\":10713:10790   */\n    tag_224:\n        /* \"#utility.yul\":10816:10883   */\n      tag_225\n        /* \"#utility.yul\":10876:10882   */\n      dup6\n        /* \"#utility.yul\":10869:10874   */\n      dup3\n        /* \"#utility.yul\":10816:10883   */\n      tag_112\n      jump\t// in\n    tag_225:\n        /* \"#utility.yul\":10810:10814   */\n      dup7\n        /* \"#utility.yul\":10803:10884   */\n      sstore\n        /* \"#utility.yul\":10672:10894   */\n      pop\n        /* \"#utility.yul\":10007:10894   */\n      jump(tag_222)\n        /* \"#utility.yul\":10037:10655   */\n    tag_223:\n        /* \"#utility.yul\":10089:10093   */\n      0x1f\n        /* \"#utility.yul\":10085:10094   */\n      not\n        /* \"#utility.yul\":10077:10083   */\n      dup5\n        /* \"#utility.yul\":10073:10095   */\n      and\n        /* \"#utility.yul\":10123:10160   */\n      tag_226\n        /* \"#utility.yul\":10155:10159   */\n      dup7\n        /* \"#utility.yul\":10123:10160   */\n      tag_98\n      jump\t// in\n    tag_226:\n        /* \"#utility.yul\":10182:10183   */\n      0x00\n        /* \"#utility.yul\":10196:10404   */\n    tag_227:\n        /* \"#utility.yul\":10210:10217   */\n      dup3\n        /* \"#utility.yul\":10207:10208   */\n      dup2\n        /* \"#utility.yul\":10204:10218   */\n      lt\n        /* \"#utility.yul\":10196:10404   */\n      iszero\n      tag_229\n      jumpi\n        /* \"#utility.yul\":10289:10298   */\n      dup5\n        /* \"#utility.yul\":10284:10287   */\n      dup10\n        /* \"#utility.yul\":10280:10299   */\n      add\n        /* \"#utility.yul\":10274:10300   */\n      mload\n        /* \"#utility.yul\":10266:10272   */\n      dup3\n        /* \"#utility.yul\":10259:10301   */\n      sstore\n        /* \"#utility.yul\":10340:10341   */\n      0x01\n        /* \"#utility.yul\":10332:10338   */\n      dup3\n        /* \"#utility.yul\":10328:10342   */\n      add\n        /* \"#utility.yul\":10318:10342   */\n      swap2\n      pop\n        /* \"#utility.yul\":10387:10389   */\n      0x20\n        /* \"#utility.yul\":10376:10385   */\n      dup6\n        /* \"#utility.yul\":10372:10390   */\n      add\n        /* \"#utility.yul\":10359:10390   */\n      swap5\n      pop\n        /* \"#utility.yul\":10233:10237   */\n      0x20\n        /* \"#utility.yul\":10230:10231   */\n      dup2\n        /* \"#utility.yul\":10226:10238   */\n      add\n        /* \"#utility.yul\":10221:10238   */\n      swap1\n      pop\n        /* \"#utility.yul\":10196:10404   */\n      jump(tag_227)\n    tag_229:\n        /* \"#utility.yul\":10432:10438   */\n      dup7\n        /* \"#utility.yul\":10423:10430   */\n      dup4\n        /* \"#utility.yul\":10420:10439   */\n      lt\n        /* \"#utility.yul\":10417:10596   */\n      iszero\n      tag_230\n      jumpi\n        /* \"#utility.yul\":10490:10499   */\n      dup5\n        /* \"#utility.yul\":10485:10488   */\n      dup10\n        /* \"#utility.yul\":10481:10500   */\n      add\n        /* \"#utility.yul\":10475:10501   */\n      mload\n        /* \"#utility.yul\":10533:10581   */\n      tag_231\n        /* \"#utility.yul\":10575:10579   */\n      0x1f\n        /* \"#utility.yul\":10567:10573   */\n      dup10\n        /* \"#utility.yul\":10563:10580   */\n      and\n        /* \"#utility.yul\":10552:10561   */\n      dup3\n        /* \"#utility.yul\":10533:10581   */\n      tag_111\n      jump\t// in\n    tag_231:\n        /* \"#utility.yul\":10525:10531   */\n      dup4\n        /* \"#utility.yul\":10518:10582   */\n      sstore\n        /* \"#utility.yul\":10440:10596   */\n      pop\n        /* \"#utility.yul\":10417:10596   */\n    tag_230:\n        /* \"#utility.yul\":10642:10643   */\n      0x01\n        /* \"#utility.yul\":10638:10639   */\n      0x02\n        /* \"#utility.yul\":10630:10636   */\n      dup9\n        /* \"#utility.yul\":10626:10640   */\n      mul\n        /* \"#utility.yul\":10622:10644   */\n      add\n        /* \"#utility.yul\":10616:10620   */\n      dup9\n        /* \"#utility.yul\":10609:10645   */\n      sstore\n        /* \"#utility.yul\":10044:10655   */\n      pop\n      pop\n      pop\n        /* \"#utility.yul\":10007:10894   */\n    tag_222:\n      pop\n        /* \"#utility.yul\":9597:10900   */\n      pop\n      pop\n      pop\n        /* \"#utility.yul\":9505:10900   */\n      pop\n      pop\n      jump\t// out\n        /* \"#utility.yul\":10906:11003   */\n    tag_113:\n        /* \"#utility.yul\":10965:10971   */\n      0x00\n        /* \"#utility.yul\":10993:10996   */\n      dup3\n        /* \"#utility.yul\":10983:10996   */\n      swap1\n      pop\n        /* \"#utility.yul\":10906:11003   */\n      swap3\n      swap2\n      pop\n      pop\n      jump\t// out\n        /* \"#utility.yul\":11009:12412   */\n    tag_76:\n        /* \"#utility.yul\":11133:11177   */\n      tag_234\n        /* \"#utility.yul\":11173:11176   */\n      dup4\n        /* \"#utility.yul\":11168:11171   */\n      dup4\n        /* \"#utility.yul\":11133:11177   */\n      tag_113\n      jump\t// in\n    tag_234:\n        /* \"#utility.yul\":11242:11260   */\n      0xffffffffffffffff\n        /* \"#utility.yul\":11234:11240   */\n      dup2\n        /* \"#utility.yul\":11231:11261   */\n      gt\n        /* \"#utility.yul\":11228:11284   */\n      iszero\n      tag_235\n      jumpi\n        /* \"#utility.yul\":11264:11282   */\n      tag_236\n      tag_97\n      jump\t// in\n    tag_236:\n        /* \"#utility.yul\":11228:11284   */\n    tag_235:\n        /* \"#utility.yul\":11308:11346   */\n      tag_237\n        /* \"#utility.yul\":11340:11344   */\n      dup3\n        /* \"#utility.yul\":11334:11345   */\n      sload\n        /* \"#utility.yul\":11308:11346   */\n      tag_46\n      jump\t// in\n    tag_237:\n        /* \"#utility.yul\":11393:11460   */\n      tag_238\n        /* \"#utility.yul\":11453:11459   */\n      dup3\n        /* \"#utility.yul\":11445:11451   */\n      dup3\n        /* \"#utility.yul\":11439:11443   */\n      dup6\n        /* \"#utility.yul\":11393:11460   */\n      tag_109\n      jump\t// in\n    tag_238:\n        /* \"#utility.yul\":11487:11488   */\n      0x00\n        /* \"#utility.yul\":11516:11518   */\n      0x1f\n        /* \"#utility.yul\":11508:11514   */\n      dup4\n        /* \"#utility.yul\":11505:11519   */\n      gt\n        /* \"#utility.yul\":11533:11534   */\n      0x01\n        /* \"#utility.yul\":11528:12160   */\n      dup2\n      eq\n      tag_240\n      jumpi\n        /* \"#utility.yul\":12204:12205   */\n      0x00\n        /* \"#utility.yul\":12221:12227   */\n      dup5\n        /* \"#utility.yul\":12218:12302   */\n      iszero\n      tag_241\n      jumpi\n        /* \"#utility.yul\":12277:12286   */\n      dup3\n        /* \"#utility.yul\":12272:12275   */\n      dup8\n        /* \"#utility.yul\":12268:12287   */\n      add\n        /* \"#utility.yul\":12255:12288   */\n      calldataload\n        /* \"#utility.yul\":12246:12288   */\n      swap1\n      pop\n        /* \"#utility.yul\":12218:12302   */\n    tag_241:\n        /* \"#utility.yul\":12328:12395   */\n      tag_242\n        /* \"#utility.yul\":12388:12394   */\n      dup6\n        /* \"#utility.yul\":12381:12386   */\n      dup3\n        /* \"#utility.yul\":12328:12395   */\n      tag_112\n      jump\t// in\n    tag_242:\n        /* \"#utility.yul\":12322:12326   */\n      dup7\n        /* \"#utility.yul\":12315:12396   */\n      sstore\n        /* \"#utility.yul\":12177:12406   */\n      pop\n        /* \"#utility.yul\":11498:12406   */\n      jump(tag_239)\n        /* \"#utility.yul\":11528:12160   */\n    tag_240:\n        /* \"#utility.yul\":11580:11584   */\n      0x1f\n        /* \"#utility.yul\":11576:11585   */\n      not\n        /* \"#utility.yul\":11568:11574   */\n      dup5\n        /* \"#utility.yul\":11564:11586   */\n      and\n        /* \"#utility.yul\":11614:11651   */\n      tag_243\n        /* \"#utility.yul\":11646:11650   */\n      dup7\n        /* \"#utility.yul\":11614:11651   */\n      tag_98\n      jump\t// in\n    tag_243:\n        /* \"#utility.yul\":11673:11674   */\n      0x00\n        /* \"#utility.yul\":11687:11902   */\n    tag_244:\n        /* \"#utility.yul\":11701:11708   */\n      dup3\n        /* \"#utility.yul\":11698:11699   */\n      dup2\n        /* \"#utility.yul\":11695:11709   */\n      lt\n        /* \"#utility.yul\":11687:11902   */\n      iszero\n      tag_246\n      jumpi\n        /* \"#utility.yul\":11787:11796   */\n      dup5\n        /* \"#utility.yul\":11782:11785   */\n      dup10\n        /* \"#utility.yul\":11778:11797   */\n      add\n        /* \"#utility.yul\":11765:11798   */\n      calldataload\n        /* \"#utility.yul\":11757:11763   */\n      dup3\n        /* \"#utility.yul\":11750:11799   */\n      sstore\n        /* \"#utility.yul\":11838:11839   */\n      0x01\n        /* \"#utility.yul\":11830:11836   */\n      dup3\n        /* \"#utility.yul\":11826:11840   */\n      add\n        /* \"#utility.yul\":11816:11840   */\n      swap2\n      pop\n        /* \"#utility.yul\":11885:11887   */\n      0x20\n        /* \"#utility.yul\":11874:11883   */\n      dup6\n        /* \"#utility.yul\":11870:11888   */\n      add\n        /* \"#utility.yul\":11857:11888   */\n      swap5\n      pop\n        /* \"#utility.yul\":11724:11728   */\n      0x20\n        /* \"#utility.yul\":11721:11722   */\n      dup2\n        /* \"#utility.yul\":11717:11729   */\n      add\n        /* \"#utility.yul\":11712:11729   */\n      swap1\n      pop\n        /* \"#utility.yul\":11687:11902   */\n      jump(tag_244)\n    tag_246:\n        /* \"#utility.yul\":11930:11936   */\n      dup7\n        /* \"#utility.yul\":11921:11928   */\n      dup4\n        /* \"#utility.yul\":11918:11937   */\n      lt\n        /* \"#utility.yul\":11915:12101   */\n      iszero\n      tag_247\n      jumpi\n        /* \"#utility.yul\":11995:12004   */\n      dup5\n        /* \"#utility.yul\":11990:11993   */\n      dup10\n        /* \"#utility.yul\":11986:12005   */\n      add\n        /* \"#utility.yul\":11973:12006   */\n      calldataload\n        /* \"#utility.yul\":12038:12086   */\n      tag_248\n        /* \"#utility.yul\":12080:12084   */\n      0x1f\n        /* \"#utility.yul\":12072:12078   */\n      dup10\n        /* \"#utility.yul\":12068:12085   */\n      and\n        /* \"#utility.yul\":12057:12066   */\n      dup3\n        /* \"#utility.yul\":12038:12086   */\n      tag_111\n      jump\t// in\n    tag_248:\n        /* \"#utility.yul\":12030:12036   */\n      dup4\n        /* \"#utility.yul\":12023:12087   */\n      sstore\n        /* \"#utility.yul\":11938:12101   */\n      pop\n        /* \"#utility.yul\":11915:12101   */\n    tag_247:\n        /* \"#utility.yul\":12147:12148   */\n      0x01\n        /* \"#utility.yul\":12143:12144   */\n      0x02\n        /* \"#utility.yul\":12135:12141   */\n      dup9\n        /* \"#utility.yul\":12131:12145   */\n      mul\n        /* \"#utility.yul\":12127:12149   */\n      add\n        /* \"#utility.yul\":12121:12125   */\n      dup9\n        /* \"#utility.yul\":12114:12150   */\n      sstore\n        /* \"#utility.yul\":11535:12160   */\n      pop\n      pop\n      pop\n        /* \"#utility.yul\":11498:12406   */\n    tag_239:\n      pop\n        /* \"#utility.yul\":11108:12412   */\n      pop\n      pop\n      pop\n        /* \"#utility.yul\":11009:12412   */\n      pop\n      pop\n      pop\n      jump\t// out\n\n    auxdata: 0xa2646970667358221220498e591dffbccf76a4d9808a465ebd2fe22b0e14923a3bc17130d5e624dd2d1b64736f6c634300081a0033\n}\n",
				"bytecode": {
					"linkReferences": {},
					"object": "6080604052348015600e575f80fd5b50610cfc8061001c5f395ff3fe608060405234801561000f575f80fd5b5060043610610055575f3560e01c8063455f5024146100595780639507d39a14610075578063b6a46b3b146100a6578063bc8bc2b4146100c2578063cd111614146100f3575b5f80fd5b610073600480360381019061006e9190610678565b61010f565b005b61008f600480360381019061008a9190610678565b6101a9565b60405161009d92919061072d565b60405180910390f35b6100c060048036038101906100bb91906107bc565b6102be565b005b6100dc60048036038101906100d79190610678565b6104df565b6040516100ea92919061072d565b60405180910390f35b61010d60048036038101906101089190610807565b61059f565b005b805f805490508110610156576040517f08c379a000000000000000000000000000000000000000000000000000000000815260040161014d906108ae565b60405180910390fd5b5f80838154811061016a576101696108cc565b5b905f5260205f2090600202019050806001015f9054906101000a900460ff1615816001015f6101000a81548160ff021916908315150217905550505050565b60605f825f8054905081106101f3576040517f08c379a00000000000000000000000000000000000000000000000000000000081526004016101ea906108ae565b60405180910390fd5b5f808581548110610207576102066108cc565b5b905f5260205f2090600202019050805f01816001015f9054906101000a900460ff1681805461023590610926565b80601f016020809104026020016040519081016040528092919081815260200182805461026190610926565b80156102ac5780601f10610283576101008083540402835291602001916102ac565b820191905f5260205f20905b81548152906001019060200180831161028f57829003601f168201915b50505050509150935093505050915091565b5f604051806040016040528084848080601f0160208091040260200160405190810160405280939291908181526020018383808284375f81840152601f19601f8201169050808301925050505050505081526020015f1515815250908060018154018082558091505060019003905f5260205f2090600202015f909190919091505f820151815f0190816103529190610b20565b506020820151816001015f6101000a81548160ff02191690831515021790555050505f604051806040016040528084848080601f0160208091040260200160405190810160405280939291908181526020018383808284375f81840152601f19601f8201169050808301925050505050505081526020015f1515815250908060018154018082558091505060019003905f5260205f2090600202015f909190919091505f820151815f0190816104089190610b20565b506020820151816001015f6101000a81548160ff0219169083151502179055505050610432610622565b82828080601f0160208091040260200160405190810160405280939291908181526020018383808284375f81840152601f19601f82011690508083019250505050505050815f01819052505f81908060018154018082558091505060019003905f5260205f2090600202015f909190919091505f820151815f0190816104b89190610b20565b506020820151816001015f6101000a81548160ff0219169083151502179055505050505050565b5f81815481106104ed575f80fd5b905f5260205f2090600202015f91509050805f01805461050c90610926565b80601f016020809104026020016040519081016040528092919081815260200182805461053890610926565b80156105835780601f1061055a57610100808354040283529160200191610583565b820191905f5260205f20905b81548152906001019060200180831161056657829003601f168201915b505050505090806001015f9054906101000a900460ff16905082565b825f8054905081106105e6576040517f08c379a00000000000000000000000000000000000000000000000000000000081526004016105dd906108ae565b60405180910390fd5b5f8085815481106105fa576105f96108cc565b5b905f5260205f20906002020190508383825f01918261061a929190610bf9565b505050505050565b6040518060400160405280606081526020015f151581525090565b5f80fd5b5f80fd5b5f819050919050565b61065781610645565b8114610661575f80fd5b50565b5f813590506106728161064e565b92915050565b5f6020828403121561068d5761068c61063d565b5b5f61069a84828501610664565b91505092915050565b5f81519050919050565b5f82825260208201905092915050565b8281835e5f83830152505050565b5f601f19601f8301169050919050565b5f6106e5826106a3565b6106ef81856106ad565b93506106ff8185602086016106bd565b610708816106cb565b840191505092915050565b5f8115159050919050565b61072781610713565b82525050565b5f6040820190508181035f83015261074581856106db565b9050610754602083018461071e565b9392505050565b5f80fd5b5f80fd5b5f80fd5b5f8083601f84011261077c5761077b61075b565b5b8235905067ffffffffffffffff8111156107995761079861075f565b5b6020830191508360018202830111156107b5576107b4610763565b5b9250929050565b5f80602083850312156107d2576107d161063d565b5b5f83013567ffffffffffffffff8111156107ef576107ee610641565b5b6107fb85828601610767565b92509250509250929050565b5f805f6040848603121561081e5761081d61063d565b5b5f61082b86828701610664565b935050602084013567ffffffffffffffff81111561084c5761084b610641565b5b61085886828701610767565b92509250509250925092565b7f3f3f3f00000000000000000000000000000000000000000000000000000000005f82015250565b5f6108986003836106ad565b91506108a382610864565b602082019050919050565b5f6020820190508181035f8301526108c58161088c565b9050919050565b7f4e487b71000000000000000000000000000000000000000000000000000000005f52603260045260245ffd5b7f4e487b71000000000000000000000000000000000000000000000000000000005f52602260045260245ffd5b5f600282049050600182168061093d57607f821691505b6020821081036109505761094f6108f9565b5b50919050565b7f4e487b71000000000000000000000000000000000000000000000000000000005f52604160045260245ffd5b5f819050815f5260205f209050919050565b5f6020601f8301049050919050565b5f82821b905092915050565b5f600883026109df7fffffffffffffffffffffffffffffffffffffffffffffffffffffffffffffffff826109a4565b6109e986836109a4565b95508019841693508086168417925050509392505050565b5f819050919050565b5f610a24610a1f610a1a84610645565b610a01565b610645565b9050919050565b5f819050919050565b610a3d83610a0a565b610a51610a4982610a2b565b8484546109b0565b825550505050565b5f90565b610a65610a59565b610a70818484610a34565b505050565b5b81811015610a9357610a885f82610a5d565b600181019050610a76565b5050565b601f821115610ad857610aa981610983565b610ab284610995565b81016020851015610ac1578190505b610ad5610acd85610995565b830182610a75565b50505b505050565b5f82821c905092915050565b5f610af85f1984600802610add565b1980831691505092915050565b5f610b108383610ae9565b9150826002028217905092915050565b610b29826106a3565b67ffffffffffffffff811115610b4257610b41610956565b5b610b4c8254610926565b610b57828285610a97565b5f60209050601f831160018114610b88575f8415610b76578287015190505b610b808582610b05565b865550610be7565b601f198416610b9686610983565b5f5b82811015610bbd57848901518255600182019150602085019450602081019050610b98565b86831015610bda5784890151610bd6601f891682610ae9565b8355505b6001600288020188555050505b505050505050565b5f82905092915050565b610c038383610bef565b67ffffffffffffffff811115610c1c57610c1b610956565b5b610c268254610926565b610c31828285610a97565b5f601f831160018114610c5e575f8415610c4c578287013590505b610c568582610b05565b865550610cbd565b601f198416610c6c86610983565b5f5b82811015610c9357848901358255600182019150602085019450602081019050610c6e565b86831015610cb05784890135610cac601f891682610ae9565b8355505b6001600288020188555050505b5050505050505056fea2646970667358221220498e591dffbccf76a4d9808a465ebd2fe22b0e14923a3bc17130d5e624dd2d1b64736f6c634300081a0033",
					"opcodes": "PUSH1 0x80 PUSH1 0x40 MSTORE CALLVALUE DUP1 ISZERO PUSH1 0xE JUMPI PUSH0 DUP1 REVERT JUMPDEST POP PUSH2 0xCFC DUP1 PUSH2 0x1C PUSH0 CODECOPY PUSH0 RETURN INVALID PUSH1 0x80 PUSH1 0x40 MSTORE CALLVALUE DUP1 ISZERO PUSH2 0xF JUMPI PUSH0 DUP1 REVERT JUMPDEST POP PUSH1 0x4 CALLDATASIZE LT PUSH2 0x55 JUMPI PUSH0 CALLDATALOAD PUSH1 0xE0 SHR DUP1 PUSH4 0x455F5024 EQ PUSH2 0x59 JUMPI DUP1 PUSH4 0x9507D39A EQ PUSH2 0x75 JUMPI DUP1 PUSH4 0xB6A46B3B EQ PUSH2 0xA6 JUMPI DUP1 PUSH4 0xBC8BC2B4 EQ PUSH2 0xC2 JUMPI DUP1 PUSH4 0xCD111614 EQ PUSH2 0xF3 JUMPI JUMPDEST PUSH0 DUP1 REVERT JUMPDEST PUSH2 0x73 PUSH1 0x4 DUP1 CALLDATASIZE SUB DUP2 ADD SWAP1 PUSH2 0x6E SWAP2 SWAP1 PUSH2 0x678 JUMP JUMPDEST PUSH2 0x10F JUMP JUMPDEST STOP JUMPDEST PUSH2 0x8F PUSH1 0x4 DUP1 CALLDATASIZE SUB DUP2 ADD SWAP1 PUSH2 0x8A SWAP2 SWAP1 PUSH2 0x678 JUMP JUMPDEST PUSH2 0x1A9 JUMP JUMPDEST PUSH1 0x40 MLOAD PUSH2 0x9D SWAP3 SWAP2 SWAP1 PUSH2 0x72D JUMP JUMPDEST PUSH1 0x40 MLOAD DUP1 SWAP2 SUB SWAP1 RETURN JUMPDEST PUSH2 0xC0 PUSH1 0x4 DUP1 CALLDATASIZE SUB DUP2 ADD SWAP1 PUSH2 0xBB SWAP2 SWAP1 PUSH2 0x7BC JUMP JUMPDEST PUSH2 0x2BE JUMP JUMPDEST STOP JUMPDEST PUSH2 0xDC PUSH1 0x4 DUP1 CALLDATASIZE SUB DUP2 ADD SWAP1 PUSH2 0xD7 SWAP2 SWAP1 PUSH2 0x678 JUMP JUMPDEST PUSH2 0x4DF JUMP JUMPDEST PUSH1 0x40 MLOAD PUSH2 0xEA SWAP3 SWAP2 SWAP1 PUSH2 0x72D JUMP JUMPDEST PUSH1 0x40 MLOAD DUP1 SWAP2 SUB SWAP1 RETURN JUMPDEST PUSH2 0x10D PUSH1 0x4 DUP1 CALLDATASIZE SUB DUP2 ADD SWAP1 PUSH2 0x108 SWAP2 SWAP1 PUSH2 0x807 JUMP JUMPDEST PUSH2 0x59F JUMP JUMPDEST STOP JUMPDEST DUP1 PUSH0 DUP1 SLOAD SWAP1 POP DUP2 LT PUSH2 0x156 JUMPI PUSH1 0x40 MLOAD PUSH32 0x8C379A000000000000000000000000000000000000000000000000000000000 DUP2 MSTORE PUSH1 0x4 ADD PUSH2 0x14D SWAP1 PUSH2 0x8AE JUMP JUMPDEST PUSH1 0x40 MLOAD DUP1 SWAP2 SUB SWAP1 REVERT JUMPDEST PUSH0 DUP1 DUP4 DUP2 SLOAD DUP2 LT PUSH2 0x16A JUMPI PUSH2 0x169 PUSH2 0x8CC JUMP JUMPDEST JUMPDEST SWAP1 PUSH0 MSTORE PUSH1 0x20 PUSH0 KECCAK256 SWAP1 PUSH1 0x2 MUL ADD SWAP1 POP DUP1 PUSH1 0x1 ADD PUSH0 SWAP1 SLOAD SWAP1 PUSH2 0x100 EXP SWAP1 DIV PUSH1 0xFF AND ISZERO DUP2 PUSH1 0x1 ADD PUSH0 PUSH2 0x100 EXP DUP2 SLOAD DUP2 PUSH1 0xFF MUL NOT AND SWAP1 DUP4 ISZERO ISZERO MUL OR SWAP1 SSTORE POP POP POP POP JUMP JUMPDEST PUSH1 0x60 PUSH0 DUP3 PUSH0 DUP1 SLOAD SWAP1 POP DUP2 LT PUSH2 0x1F3 JUMPI PUSH1 0x40 MLOAD PUSH32 0x8C379A000000000000000000000000000000000000000000000000000000000 DUP2 MSTORE PUSH1 0x4 ADD PUSH2 0x1EA SWAP1 PUSH2 0x8AE JUMP JUMPDEST PUSH1 0x40 MLOAD DUP1 SWAP2 SUB SWAP1 REVERT JUMPDEST PUSH0 DUP1 DUP6 DUP2 SLOAD DUP2 LT PUSH2 0x207 JUMPI PUSH2 0x206 PUSH2 0x8CC JUMP JUMPDEST JUMPDEST SWAP1 PUSH0 MSTORE PUSH1 0x20 PUSH0 KECCAK256 SWAP1 PUSH1 0x2 MUL ADD SWAP1 POP DUP1 PUSH0 ADD DUP2 PUSH1 0x1 ADD PUSH0 SWAP1 SLOAD SWAP1 PUSH2 0x100 EXP SWAP1 DIV PUSH1 0xFF AND DUP2 DUP1 SLOAD PUSH2 0x235 SWAP1 PUSH2 0x926 JUMP JUMPDEST DUP1 PUSH1 0x1F ADD PUSH1 0x20 DUP1 SWAP2 DIV MUL PUSH1 0x20 ADD PUSH1 0x40 MLOAD SWAP1 DUP2 ADD PUSH1 0x40 MSTORE DUP1 SWAP3 SWAP2 SWAP1 DUP2 DUP2 MSTORE PUSH1 0x20 ADD DUP3 DUP1 SLOAD PUSH2 0x261 SWAP1 PUSH2 0x926 JUMP JUMPDEST DUP1 ISZERO PUSH2 0x2AC JUMPI DUP1 PUSH1 0x1F LT PUSH2 0x283 JUMPI PUSH2 0x100 DUP1 DUP4 SLOAD DIV MUL DUP4 MSTORE SWAP2 PUSH1 0x20 ADD SWAP2 PUSH2 0x2AC JUMP JUMPDEST DUP3 ADD SWAP2 SWAP1 PUSH0 MSTORE PUSH1 0x20 PUSH0 KECCAK256 SWAP1 JUMPDEST DUP2 SLOAD DUP2 MSTORE SWAP1 PUSH1 0x1 ADD SWAP1 PUSH1 0x20 ADD DUP1 DUP4 GT PUSH2 0x28F JUMPI DUP3 SWAP1 SUB PUSH1 0x1F AND DUP3 ADD SWAP2 JUMPDEST POP POP POP POP POP SWAP2 POP SWAP4 POP SWAP4 POP POP POP SWAP2 POP SWAP2 JUMP JUMPDEST PUSH0 PUSH1 0x40 MLOAD DUP1 PUSH1 0x40 ADD PUSH1 0x40 MSTORE DUP1 DUP5 DUP5 DUP1 DUP1 PUSH1 0x1F ADD PUSH1 0x20 DUP1 SWAP2 DIV MUL PUSH1 0x20 ADD PUSH1 0x40 MLOAD SWAP1 DUP2 ADD PUSH1 0x40 MSTORE DUP1 SWAP4 SWAP3 SWAP2 SWAP1 DUP2 DUP2 MSTORE PUSH1 0x20 ADD DUP4 DUP4 DUP1 DUP3 DUP5 CALLDATACOPY PUSH0 DUP2 DUP5 ADD MSTORE PUSH1 0x1F NOT PUSH1 0x1F DUP3 ADD AND SWAP1 POP DUP1 DUP4 ADD SWAP3 POP POP POP POP POP POP POP DUP2 MSTORE PUSH1 0x20 ADD PUSH0 ISZERO ISZERO DUP2 MSTORE POP SWAP1 DUP1 PUSH1 0x1 DUP2 SLOAD ADD DUP1 DUP3 SSTORE DUP1 SWAP2 POP POP PUSH1 0x1 SWAP1 SUB SWAP1 PUSH0 MSTORE PUSH1 0x20 PUSH0 KECCAK256 SWAP1 PUSH1 0x2 MUL ADD PUSH0 SWAP1 SWAP2 SWAP1 SWAP2 SWAP1 SWAP2 POP PUSH0 DUP3 ADD MLOAD DUP2 PUSH0 ADD SWAP1 DUP2 PUSH2 0x352 SWAP2 SWAP1 PUSH2 0xB20 JUMP JUMPDEST POP PUSH1 0x20 DUP3 ADD MLOAD DUP2 PUSH1 0x1 ADD PUSH0 PUSH2 0x100 EXP DUP2 SLOAD DUP2 PUSH1 0xFF MUL NOT AND SWAP1 DUP4 ISZERO ISZERO MUL OR SWAP1 SSTORE POP POP POP PUSH0 PUSH1 0x40 MLOAD DUP1 PUSH1 0x40 ADD PUSH1 0x40 MSTORE DUP1 DUP5 DUP5 DUP1 DUP1 PUSH1 0x1F ADD PUSH1 0x20 DUP1 SWAP2 DIV MUL PUSH1 0x20 ADD PUSH1 0x40 MLOAD SWAP1 DUP2 ADD PUSH1 0x40 MSTORE DUP1 SWAP4 SWAP3 SWAP2 SWAP1 DUP2 DUP2 MSTORE PUSH1 0x20 ADD DUP4 DUP4 DUP1 DUP3 DUP5 CALLDATACOPY PUSH0 DUP2 DUP5 ADD MSTORE PUSH1 0x1F NOT PUSH1 0x1F DUP3 ADD AND SWAP1 POP DUP1 DUP4 ADD SWAP3 POP POP POP POP POP POP POP DUP2 MSTORE PUSH1 0x20 ADD PUSH0 ISZERO ISZERO DUP2 MSTORE POP SWAP1 DUP1 PUSH1 0x1 DUP2 SLOAD ADD DUP1 DUP3 SSTORE DUP1 SWAP2 POP POP PUSH1 0x1 SWAP1 SUB SWAP1 PUSH0 MSTORE PUSH1 0x20 PUSH0 KECCAK256 SWAP1 PUSH1 0x2 MUL ADD PUSH0 SWAP1 SWAP2 SWAP1 SWAP2 SWAP1 SWAP2 POP PUSH0 DUP3 ADD MLOAD DUP2 PUSH0 ADD SWAP1 DUP2 PUSH2 0x408 SWAP2 SWAP1 PUSH2 0xB20 JUMP JUMPDEST POP PUSH1 0x20 DUP3 ADD MLOAD DUP2 PUSH1 0x1 ADD PUSH0 PUSH2 0x100 EXP DUP2 SLOAD DUP2 PUSH1 0xFF MUL NOT AND SWAP1 DUP4 ISZERO ISZERO MUL OR SWAP1 SSTORE POP POP POP PUSH2 0x432 PUSH2 0x622 JUMP JUMPDEST DUP3 DUP3 DUP1 DUP1 PUSH1 0x1F ADD PUSH1 0x20 DUP1 SWAP2 DIV MUL PUSH1 0x20 ADD PUSH1 0x40 MLOAD SWAP1 DUP2 ADD PUSH1 0x40 MSTORE DUP1 SWAP4 SWAP3 SWAP2 SWAP1 DUP2 DUP2 MSTORE PUSH1 0x20 ADD DUP4 DUP4 DUP1 DUP3 DUP5 CALLDATACOPY PUSH0 DUP2 DUP5 ADD MSTORE PUSH1 0x1F NOT PUSH1 0x1F DUP3 ADD AND SWAP1 POP DUP1 DUP4 ADD SWAP3 POP POP POP POP POP POP POP DUP2 PUSH0 ADD DUP2 SWAP1 MSTORE POP PUSH0 DUP2 SWAP1 DUP1 PUSH1 0x1 DUP2 SLOAD ADD DUP1 DUP3 SSTORE DUP1 SWAP2 POP POP PUSH1 0x1 SWAP1 SUB SWAP1 PUSH0 MSTORE PUSH1 0x20 PUSH0 KECCAK256 SWAP1 PUSH1 0x2 MUL ADD PUSH0 SWAP1 SWAP2 SWAP1 SWAP2 SWAP1 SWAP2 POP PUSH0 DUP3 ADD MLOAD DUP2 PUSH0 ADD SWAP1 DUP2 PUSH2 0x4B8 SWAP2 SWAP1 PUSH2 0xB20 JUMP JUMPDEST POP PUSH1 0x20 DUP3 ADD MLOAD DUP2 PUSH1 0x1 ADD PUSH0 PUSH2 0x100 EXP DUP2 SLOAD DUP2 PUSH1 0xFF MUL NOT AND SWAP1 DUP4 ISZERO ISZERO MUL OR SWAP1 SSTORE POP POP POP POP POP POP JUMP JUMPDEST PUSH0 DUP2 DUP2 SLOAD DUP2 LT PUSH2 0x4ED JUMPI PUSH0 DUP1 REVERT JUMPDEST SWAP1 PUSH0 MSTORE PUSH1 0x20 PUSH0 KECCAK256 SWAP1 PUSH1 0x2 MUL ADD PUSH0 SWAP2 POP SWAP1 POP DUP1 PUSH0 ADD DUP1 SLOAD PUSH2 0x50C SWAP1 PUSH2 0x926 JUMP JUMPDEST DUP1 PUSH1 0x1F ADD PUSH1 0x20 DUP1 SWAP2 DIV MUL PUSH1 0x20 ADD PUSH1 0x40 MLOAD SWAP1 DUP2 ADD PUSH1 0x40 MSTORE DUP1 SWAP3 SWAP2 SWAP1 DUP2 DUP2 MSTORE PUSH1 0x20 ADD DUP3 DUP1 SLOAD PUSH2 0x538 SWAP1 PUSH2 0x926 JUMP JUMPDEST DUP1 ISZERO PUSH2 0x583 JUMPI DUP1 PUSH1 0x1F LT PUSH2 0x55A JUMPI PUSH2 0x100 DUP1 DUP4 SLOAD DIV MUL DUP4 MSTORE SWAP2 PUSH1 0x20 ADD SWAP2 PUSH2 0x583 JUMP JUMPDEST DUP3 ADD SWAP2 SWAP1 PUSH0 MSTORE PUSH1 0x20 PUSH0 KECCAK256 SWAP1 JUMPDEST DUP2 SLOAD DUP2 MSTORE SWAP1 PUSH1 0x1 ADD SWAP1 PUSH1 0x20 ADD DUP1 DUP4 GT PUSH2 0x566 JUMPI DUP3 SWAP1 SUB PUSH1 0x1F AND DUP3 ADD SWAP2 JUMPDEST POP POP POP POP POP SWAP1 DUP1 PUSH1 0x1 ADD PUSH0 SWAP1 SLOAD SWAP1 PUSH2 0x100 EXP SWAP1 DIV PUSH1 0xFF AND SWAP1 POP DUP3 JUMP JUMPDEST DUP3 PUSH0 DUP1 SLOAD SWAP1 POP DUP2 LT PUSH2 0x5E6 JUMPI PUSH1 0x40 MLOAD PUSH32 0x8C379A000000000000000000000000000000000000000000000000000000000 DUP2 MSTORE PUSH1 0x4 ADD PUSH2 0x5DD SWAP1 PUSH2 0x8AE JUMP JUMPDEST PUSH1 0x40 MLOAD DUP1 SWAP2 SUB SWAP1 REVERT JUMPDEST PUSH0 DUP1 DUP6 DUP2 SLOAD DUP2 LT PUSH2 0x5FA JUMPI PUSH2 0x5F9 PUSH2 0x8CC JUMP JUMPDEST JUMPDEST SWAP1 PUSH0 MSTORE PUSH1 0x20 PUSH0 KECCAK256 SWAP1 PUSH1 0x2 MUL ADD SWAP1 POP DUP4 DUP4 DUP3 PUSH0 ADD SWAP2 DUP3 PUSH2 0x61A SWAP3 SWAP2 SWAP1 PUSH2 0xBF9 JUMP JUMPDEST POP POP POP POP POP POP JUMP JUMPDEST PUSH1 0x40 MLOAD DUP1 PUSH1 0x40 ADD PUSH1 0x40 MSTORE DUP1 PUSH1 0x60 DUP2 MSTORE PUSH1 0x20 ADD PUSH0 ISZERO ISZERO DUP2 MSTORE POP SWAP1 JUMP JUMPDEST PUSH0 DUP1 REVERT JUMPDEST PUSH0 DUP1 REVERT JUMPDEST PUSH0 DUP2 SWAP1 POP SWAP2 SWAP1 POP JUMP JUMPDEST PUSH2 0x657 DUP2 PUSH2 0x645 JUMP JUMPDEST DUP2 EQ PUSH2 0x661 JUMPI PUSH0 DUP1 REVERT JUMPDEST POP JUMP JUMPDEST PUSH0 DUP2 CALLDATALOAD SWAP1 POP PUSH2 0x672 DUP2 PUSH2 0x64E JUMP JUMPDEST SWAP3 SWAP2 POP POP JUMP JUMPDEST PUSH0 PUSH1 0x20 DUP3 DUP5 SUB SLT ISZERO PUSH2 0x68D JUMPI PUSH2 0x68C PUSH2 0x63D JUMP JUMPDEST JUMPDEST PUSH0 PUSH2 0x69A DUP5 DUP3 DUP6 ADD PUSH2 0x664 JUMP JUMPDEST SWAP2 POP POP SWAP3 SWAP2 POP POP JUMP JUMPDEST PUSH0 DUP2 MLOAD SWAP1 POP SWAP2 SWAP1 POP JUMP JUMPDEST PUSH0 DUP3 DUP3 MSTORE PUSH1 0x20 DUP3 ADD SWAP1 POP SWAP3 SWAP2 POP POP JUMP JUMPDEST DUP3 DUP2 DUP4 MCOPY PUSH0 DUP4 DUP4 ADD MSTORE POP POP POP JUMP JUMPDEST PUSH0 PUSH1 0x1F NOT PUSH1 0x1F DUP4 ADD AND SWAP1 POP SWAP2 SWAP1 POP JUMP JUMPDEST PUSH0 PUSH2 0x6E5 DUP3 PUSH2 0x6A3 JUMP JUMPDEST PUSH2 0x6EF DUP2 DUP6 PUSH2 0x6AD JUMP JUMPDEST SWAP4 POP PUSH2 0x6FF DUP2 DUP6 PUSH1 0x20 DUP7 ADD PUSH2 0x6BD JUMP JUMPDEST PUSH2 0x708 DUP2 PUSH2 0x6CB JUMP JUMPDEST DUP5 ADD SWAP2 POP POP SWAP3 SWAP2 POP POP JUMP JUMPDEST PUSH0 DUP2 ISZERO ISZERO SWAP1 POP SWAP2 SWAP1 POP JUMP JUMPDEST PUSH2 0x727 DUP2 PUSH2 0x713 JUMP JUMPDEST DUP3 MSTORE POP POP JUMP JUMPDEST PUSH0 PUSH1 0x40 DUP3 ADD SWAP1 POP DUP2 DUP2 SUB PUSH0 DUP4 ADD MSTORE PUSH2 0x745 DUP2 DUP6 PUSH2 0x6DB JUMP JUMPDEST SWAP1 POP PUSH2 0x754 PUSH1 0x20 DUP4 ADD DUP5 PUSH2 0x71E JUMP JUMPDEST SWAP4 SWAP3 POP POP POP JUMP JUMPDEST PUSH0 DUP1 REVERT JUMPDEST PUSH0 DUP1 REVERT JUMPDEST PUSH0 DUP1 REVERT JUMPDEST PUSH0 DUP1 DUP4 PUSH1 0x1F DUP5 ADD SLT PUSH2 0x77C JUMPI PUSH2 0x77B PUSH2 0x75B JUMP JUMPDEST JUMPDEST DUP3 CALLDATALOAD SWAP1 POP PUSH8 0xFFFFFFFFFFFFFFFF DUP2 GT ISZERO PUSH2 0x799 JUMPI PUSH2 0x798 PUSH2 0x75F JUMP JUMPDEST JUMPDEST PUSH1 0x20 DUP4 ADD SWAP2 POP DUP4 PUSH1 0x1 DUP3 MUL DUP4 ADD GT ISZERO PUSH2 0x7B5 JUMPI PUSH2 0x7B4 PUSH2 0x763 JUMP JUMPDEST JUMPDEST SWAP3 POP SWAP3 SWAP1 POP JUMP JUMPDEST PUSH0 DUP1 PUSH1 0x20 DUP4 DUP6 SUB SLT ISZERO PUSH2 0x7D2 JUMPI PUSH2 0x7D1 PUSH2 0x63D JUMP JUMPDEST JUMPDEST PUSH0 DUP4 ADD CALLDATALOAD PUSH8 0xFFFFFFFFFFFFFFFF DUP2 GT ISZERO PUSH2 0x7EF JUMPI PUSH2 0x7EE PUSH2 0x641 JUMP JUMPDEST JUMPDEST PUSH2 0x7FB DUP6 DUP3 DUP7 ADD PUSH2 0x767 JUMP JUMPDEST SWAP3 POP SWAP3 POP POP SWAP3 POP SWAP3 SWAP1 POP JUMP JUMPDEST PUSH0 DUP1 PUSH0 PUSH1 0x40 DUP5 DUP7 SUB SLT ISZERO PUSH2 0x81E JUMPI PUSH2 0x81D PUSH2 0x63D JUMP JUMPDEST JUMPDEST PUSH0 PUSH2 0x82B DUP7 DUP3 DUP8 ADD PUSH2 0x664 JUMP JUMPDEST SWAP4 POP POP PUSH1 0x20 DUP5 ADD CALLDATALOAD PUSH8 0xFFFFFFFFFFFFFFFF DUP2 GT ISZERO PUSH2 0x84C JUMPI PUSH2 0x84B PUSH2 0x641 JUMP JUMPDEST JUMPDEST PUSH2 0x858 DUP7 DUP3 DUP8 ADD PUSH2 0x767 JUMP JUMPDEST SWAP3 POP SWAP3 POP POP SWAP3 POP SWAP3 POP SWAP3 JUMP JUMPDEST PUSH32 0x3F3F3F0000000000000000000000000000000000000000000000000000000000 PUSH0 DUP3 ADD MSTORE POP JUMP JUMPDEST PUSH0 PUSH2 0x898 PUSH1 0x3 DUP4 PUSH2 0x6AD JUMP JUMPDEST SWAP2 POP PUSH2 0x8A3 DUP3 PUSH2 0x864 JUMP JUMPDEST PUSH1 0x20 DUP3 ADD SWAP1 POP SWAP2 SWAP1 POP JUMP JUMPDEST PUSH0 PUSH1 0x20 DUP3 ADD SWAP1 POP DUP2 DUP2 SUB PUSH0 DUP4 ADD MSTORE PUSH2 0x8C5 DUP2 PUSH2 0x88C JUMP JUMPDEST SWAP1 POP SWAP2 SWAP1 POP JUMP JUMPDEST PUSH32 0x4E487B7100000000000000000000000000000000000000000000000000000000 PUSH0 MSTORE PUSH1 0x32 PUSH1 0x4 MSTORE PUSH1 0x24 PUSH0 REVERT JUMPDEST PUSH32 0x4E487B7100000000000000000000000000000000000000000000000000000000 PUSH0 MSTORE PUSH1 0x22 PUSH1 0x4 MSTORE PUSH1 0x24 PUSH0 REVERT JUMPDEST PUSH0 PUSH1 0x2 DUP3 DIV SWAP1 POP PUSH1 0x1 DUP3 AND DUP1 PUSH2 0x93D JUMPI PUSH1 0x7F DUP3 AND SWAP2 POP JUMPDEST PUSH1 0x20 DUP3 LT DUP2 SUB PUSH2 0x950 JUMPI PUSH2 0x94F PUSH2 0x8F9 JUMP JUMPDEST JUMPDEST POP SWAP2 SWAP1 POP JUMP JUMPDEST PUSH32 0x4E487B7100000000000000000000000000000000000000000000000000000000 PUSH0 MSTORE PUSH1 0x41 PUSH1 0x4 MSTORE PUSH1 0x24 PUSH0 REVERT JUMPDEST PUSH0 DUP2 SWAP1 POP DUP2 PUSH0 MSTORE PUSH1 0x20 PUSH0 KECCAK256 SWAP1 POP SWAP2 SWAP1 POP JUMP JUMPDEST PUSH0 PUSH1 0x20 PUSH1 0x1F DUP4 ADD DIV SWAP1 POP SWAP2 SWAP1 POP JUMP JUMPDEST PUSH0 DUP3 DUP3 SHL SWAP1 POP SWAP3 SWAP2 POP POP JUMP JUMPDEST PUSH0 PUSH1 0x8 DUP4 MUL PUSH2 0x9DF PUSH32 0xFFFFFFFFFFFFFFFFFFFFFFFFFFFFFFFFFFFFFFFFFFFFFFFFFFFFFFFFFFFFFFFF DUP3 PUSH2 0x9A4 JUMP JUMPDEST PUSH2 0x9E9 DUP7 DUP4 PUSH2 0x9A4 JUMP JUMPDEST SWAP6 POP DUP1 NOT DUP5 AND SWAP4 POP DUP1 DUP7 AND DUP5 OR SWAP3 POP POP POP SWAP4 SWAP3 POP POP POP JUMP JUMPDEST PUSH0 DUP2 SWAP1 POP SWAP2 SWAP1 POP JUMP JUMPDEST PUSH0 PUSH2 0xA24 PUSH2 0xA1F PUSH2 0xA1A DUP5 PUSH2 0x645 JUMP JUMPDEST PUSH2 0xA01 JUMP JUMPDEST PUSH2 0x645 JUMP JUMPDEST SWAP1 POP SWAP2 SWAP1 POP JUMP JUMPDEST PUSH0 DUP2 SWAP1 POP SWAP2 SWAP1 POP JUMP JUMPDEST PUSH2 0xA3D DUP4 PUSH2 0xA0A JUMP JUMPDEST PUSH2 0xA51 PUSH2 0xA49 DUP3 PUSH2 0xA2B JUMP JUMPDEST DUP5 DUP5 SLOAD PUSH2 0x9B0 JUMP JUMPDEST DUP3 SSTORE POP POP POP POP JUMP JUMPDEST PUSH0 SWAP1 JUMP JUMPDEST PUSH2 0xA65 PUSH2 0xA59 JUMP JUMPDEST PUSH2 0xA70 DUP2 DUP5 DUP5 PUSH2 0xA34 JUMP JUMPDEST POP POP POP JUMP JUMPDEST JUMPDEST DUP2 DUP2 LT ISZERO PUSH2 0xA93 JUMPI PUSH2 0xA88 PUSH0 DUP3 PUSH2 0xA5D JUMP JUMPDEST PUSH1 0x1 DUP2 ADD SWAP1 POP PUSH2 0xA76 JUMP JUMPDEST POP POP JUMP JUMPDEST PUSH1 0x1F DUP3 GT ISZERO PUSH2 0xAD8 JUMPI PUSH2 0xAA9 DUP2 PUSH2 0x983 JUMP JUMPDEST PUSH2 0xAB2 DUP5 PUSH2 0x995 JUMP JUMPDEST DUP2 ADD PUSH1 0x20 DUP6 LT ISZERO PUSH2 0xAC1 JUMPI DUP2 SWAP1 POP JUMPDEST PUSH2 0xAD5 PUSH2 0xACD DUP6 PUSH2 0x995 JUMP JUMPDEST DUP4 ADD DUP3 PUSH2 0xA75 JUMP JUMPDEST POP POP JUMPDEST POP POP POP JUMP JUMPDEST PUSH0 DUP3 DUP3 SHR SWAP1 POP SWAP3 SWAP2 POP POP JUMP JUMPDEST PUSH0 PUSH2 0xAF8 PUSH0 NOT DUP5 PUSH1 0x8 MUL PUSH2 0xADD JUMP JUMPDEST NOT DUP1 DUP4 AND SWAP2 POP POP SWAP3 SWAP2 POP POP JUMP JUMPDEST PUSH0 PUSH2 0xB10 DUP4 DUP4 PUSH2 0xAE9 JUMP JUMPDEST SWAP2 POP DUP3 PUSH1 0x2 MUL DUP3 OR SWAP1 POP SWAP3 SWAP2 POP POP JUMP JUMPDEST PUSH2 0xB29 DUP3 PUSH2 0x6A3 JUMP JUMPDEST PUSH8 0xFFFFFFFFFFFFFFFF DUP2 GT ISZERO PUSH2 0xB42 JUMPI PUSH2 0xB41 PUSH2 0x956 JUMP JUMPDEST JUMPDEST PUSH2 0xB4C DUP3 SLOAD PUSH2 0x926 JUMP JUMPDEST PUSH2 0xB57 DUP3 DUP3 DUP6 PUSH2 0xA97 JUMP JUMPDEST PUSH0 PUSH1 0x20 SWAP1 POP PUSH1 0x1F DUP4 GT PUSH1 0x1 DUP2 EQ PUSH2 0xB88 JUMPI PUSH0 DUP5 ISZERO PUSH2 0xB76 JUMPI DUP3 DUP8 ADD MLOAD SWAP1 POP JUMPDEST PUSH2 0xB80 DUP6 DUP3 PUSH2 0xB05 JUMP JUMPDEST DUP7 SSTORE POP PUSH2 0xBE7 JUMP JUMPDEST PUSH1 0x1F NOT DUP5 AND PUSH2 0xB96 DUP7 PUSH2 0x983 JUMP JUMPDEST PUSH0 JUMPDEST DUP3 DUP2 LT ISZERO PUSH2 0xBBD JUMPI DUP5 DUP10 ADD MLOAD DUP3 SSTORE PUSH1 0x1 DUP3 ADD SWAP2 POP PUSH1 0x20 DUP6 ADD SWAP5 POP PUSH1 0x20 DUP2 ADD SWAP1 POP PUSH2 0xB98 JUMP JUMPDEST DUP7 DUP4 LT ISZERO PUSH2 0xBDA JUMPI DUP5 DUP10 ADD MLOAD PUSH2 0xBD6 PUSH1 0x1F DUP10 AND DUP3 PUSH2 0xAE9 JUMP JUMPDEST DUP4 SSTORE POP JUMPDEST PUSH1 0x1 PUSH1 0x2 DUP9 MUL ADD DUP9 SSTORE POP POP POP JUMPDEST POP POP POP POP POP POP JUMP JUMPDEST PUSH0 DUP3 SWAP1 POP SWAP3 SWAP2 POP POP JUMP JUMPDEST PUSH2 0xC03 DUP4 DUP4 PUSH2 0xBEF JUMP JUMPDEST PUSH8 0xFFFFFFFFFFFFFFFF DUP2 GT ISZERO PUSH2 0xC1C JUMPI PUSH2 0xC1B PUSH2 0x956 JUMP JUMPDEST JUMPDEST PUSH2 0xC26 DUP3 SLOAD PUSH2 0x926 JUMP JUMPDEST PUSH2 0xC31 DUP3 DUP3 DUP6 PUSH2 0xA97 JUMP JUMPDEST PUSH0 PUSH1 0x1F DUP4 GT PUSH1 0x1 DUP2 EQ PUSH2 0xC5E JUMPI PUSH0 DUP5 ISZERO PUSH2 0xC4C JUMPI DUP3 DUP8 ADD CALLDATALOAD SWAP1 POP JUMPDEST PUSH2 0xC56 DUP6 DUP3 PUSH2 0xB05 JUMP JUMPDEST DUP7 SSTORE POP PUSH2 0xCBD JUMP JUMPDEST PUSH1 0x1F NOT DUP5 AND PUSH2 0xC6C DUP7 PUSH2 0x983 JUMP JUMPDEST PUSH0 JUMPDEST DUP3 DUP2 LT ISZERO PUSH2 0xC93 JUMPI DUP5 DUP10 ADD CALLDATALOAD DUP3 SSTORE PUSH1 0x1 DUP3 ADD SWAP2 POP PUSH1 0x20 DUP6 ADD SWAP5 POP PUSH1 0x20 DUP2 ADD SWAP1 POP PUSH2 0xC6E JUMP JUMPDEST DUP7 DUP4 LT ISZERO PUSH2 0xCB0 JUMPI DUP5 DUP10 ADD CALLDATALOAD PUSH2 0xCAC PUSH1 0x1F DUP10 AND DUP3 PUSH2 0xAE9 JUMP JUMPDEST DUP4 SSTORE POP JUMPDEST PUSH1 0x1 PUSH1 0x2 DUP9 MUL ADD DUP9 SSTORE POP POP POP JUMPDEST POP POP POP POP POP POP POP JUMP INVALID LOG2 PUSH5 0x6970667358 0x22 SLT KECCAK256 BLOBHASH DUP15 MSIZE SAR SELFDESTRUCT 0xBC 0xCF PUSH23 0xA4D9808A465EBD2FE22B0E14923A3BC17130D5E624DD2D SHL PUSH5 0x736F6C6343 STOP ADDMOD BYTE STOP CALLER "
				},
				"gasEstimates": {
					"creation": {
						"codeDepositCost": "664800",
						"executionCost": "694",
						"totalCost": "665494"
					},
					"external": {
						"create(string)": "infinite",
						"get(uint256)": "infinite",
						"todos(uint256)": "infinite",
						"toggleCompleted(uint256)": "31131",
						"updateText(uint256,string)": "infinite"
					}
				},
				"methodIdentifiers": {
					"create(string)": "b6a46b3b",
					"get(uint256)": "9507d39a",
					"todos(uint256)": "bc8bc2b4",
					"toggleCompleted(uint256)": "455f5024",
					"updateText(uint256,string)": "cd111614"
				}
			},
			"storageLayout": {
				"storage": [
					{
						"astId": 10,
						"contract": "contracts/Sample/Struct.sol:Todos",
						"label": "todos",
						"offset": 0,
						"slot": "0",
						"type": "t_array(t_struct(Todo)6_storage)dyn_storage"
					}
				],
				"types": {
					"t_array(t_struct(Todo)6_storage)dyn_storage": {
						"base": "t_struct(Todo)6_storage",
						"encoding": "dynamic_array",
						"label": "struct Todos.Todo[]",
						"numberOfBytes": "32"
					},
					"t_bool": {
						"encoding": "inplace",
						"label": "bool",
						"numberOfBytes": "1"
					},
					"t_string_storage": {
						"encoding": "bytes",
						"label": "string",
						"numberOfBytes": "32"
					},
					"t_struct(Todo)6_storage": {
						"encoding": "inplace",
						"label": "struct Todos.Todo",
						"members": [
							{
								"astId": 3,
								"contract": "contracts/Sample/Struct.sol:Todos",
								"label": "text",
								"offset": 0,
								"slot": "0",
								"type": "t_string_storage"
							},
							{
								"astId": 5,
								"contract": "contracts/Sample/Struct.sol:Todos",
								"label": "completed",
								"offset": 0,
								"slot": "1",
								"type": "t_bool"
							}
						],
						"numberOfBytes": "64"
					}
				}
			},
			"userdoc": {
				"kind": "user",
				"methods": {},
				"version": 1
			}
		}
	}
}